:020000040800F2
:10000000307F002019030008AF5E0008055000088B
:10001000AD5E000891210008E575000800000000B1
:100020000000000000000000000000008102000845
:100030006522000800000000C5020008696B000886
:1000400033030008330300083303000833030008B8
:1000500033030008330300083303000833030008A8
:100060003303000833030008330300083303000898
:10007000330300083303000833030008F9210008A4
:100080003303000833030008330300083303000878
:100090003303000833030008330300083303000868
:1000A000330300085D6D00083303000833030008C4
:1000B000696D0008330300083303000833030008A8
:1000C0003303000833030008330300083303000838
:1000D00033030008017300083303000833030008EA
:1000E0003303000833030008330300083303000818
:1000F0003303000833030008330300083303000808
:1001000033030008330300083303000833030008F7
:100110003303000833030008756D0008816D000883
:1001200033030008330300080522000833030008E6
:1001300000F002F800F094F80AA090E8000C824465
:100140008344AAF10107DA4501D100F089F8AFF242
:10015000090EBAE80F0013F0010F18BFFB1A43F0A5
:1001600001031847B0C40000D0C40000103A24BFF7
:1001700078C878C1FAD8520724BF30C830C144BF0C
:1001800004680C607047000000230024002500264E
:10019000103A28BF78C1FBD8520728BF30C148BFEA
:1001A0000B6070476E2900F00385702900F05B86B4
:1001B00066290BF0C98365290BF0C68367290BF00C
:1001C000C38361290BF0C28303681B0A28BF41F077
:1001D0008001692900F0E081642900F0DD81752942
:1001E00000F0DA816F2900F0E885782900F0278691
:1001F000E92900F08385E42900F08085F52900F0E5
:100200007D85EF2900F0E585F82900F02686036852
:10021000DB0928BF41F08001632900F004857329C0
:1002200000F00985E32901F07782F32901F07C824F
:10023000002070471FB59DE8030000F0F1FB01F0BE
:10024000CDFA0400002000210BF068FB401C606028
:10025000002000210BF04CFBE0601FBD10B510BD6D
:1002600001F08EFA1146FFF7E5FF08F08DFF01F06F
:100270006BFB03B4FFF7F2FF03BC01F09BFB000034
:10028000224B19680868B0E8F00F80F30988BFF3C3
:100290006F8F4FF0000080F311884EF00D0E704705
:1002A0000000000006480068006880F3088862B615
:1002B00061B6BFF34F8FBFF36F8F00DF00BF00BF8A
:1002C00008ED00E0EFF30980BFF36F8F0F4B1A6862
:1002D00020E9F00F106008B54FF0500080F311884E
:1002E000BFF34F8FBFF36F8F0AF0E6FB4FF00000B4
:1002F00080F31188BDE8084019680868B0E8F00F7D
:1003000080F30988BFF36F8F704700BF3000002073
:10031000EFF305807047000009488047094800470F
:10032000FEE7FEE7FEE7FEE7FEE7FEE7FEE7FEE7A5
:10033000FEE7FEE704480549054A064B7047000002
:10034000F16C00083101000830670020307F002088
:10035000306F0020306F002070B5064600F044FB7F
:10036000056806F10B0020F00704B4429CBF002092
:1003700070BD2B466A68BAB11068A04210D304F170
:10038000080188423CBF5068586007D35168101973
:1003900041601168091B016058601460101D70BD38
:1003A00013465268002AE7D12146284600F024FB74
:1003B0000028DED170BD70B50446051F00F014FBA7
:1003C0000068002C14BF446870BD002C18BFAC42FC
:1003D0003CBF20466468F8D301680A18AA4218BFD7
:1003E000456003D12A680546114401602868411917
:1003F000A1421CBF6C6070BD6168696021680844DF
:10040000286070BD53EA020C00F069802DE9F04BC2
:100410004FF00006002B1FBFB3FA83F503FA05F473
:1004200024FA05F65E4012BF1643B2FA82F502FACC
:1004300005F4C5F120051EBF22FA05FC44EA0C04B0
:10044000203556EA044C4FEA144418BF641C4FF0A0
:1004500000084FF00009904271EB030C39D30029DA
:1004600019BFB1FA81F701FA07F6B0FA80F700FA7E
:1004700007F6C7F120071EBF20FA07FC46EA0C0664
:100480002037B6FBF4FCA7EB0507103F07F01F0B66
:10049000CBF120060CFA0BFB2CFA06F644BFB34650
:1004A0000026202FA4BF5E464FF0000B5BEA060C2F
:1004B00008BF4FF0010B19EB0B09ABFB027C48EBBB
:1004C0000608C01B06FB02CC0BFB03CC71EB0C0136
:1004D000C1E70B46024641464846BDE8F08B13B5DE
:1004E0004FF000004FF00001AFF30080BDE81C406A
:1004F000704700001CB50C46064B7B4469460090D3
:10050000204600F06EFB04460020694600F07CFBAC
:1005100020461CBD0B0700000FB41CB5084B06AAF3
:100520007B4469460090059800F05BFB0446002080
:10053000694600F069FB20461CBC5DF814FB000016
:10054000E506000070B50C460546012A05D028785E
:10055000800600D5EA69002302E0012305E05B1C68
:10056000934202D2E05C0028F9D1A869E618C01ACB
:10057000A861286A18442862284600F087FA04E037
:10058000D5E9012114F8010B9047B442F8D328466D
:1005900000F092FA70BD00002DE9F04106460024FB
:1005A00010687529314616A510D000F096FA00287B
:1005B00002DA404213A507E031688A0701D512A587
:1005C00002E0490704D511A5012401E000F08EFAEC
:1005D00000210A2206F1240709E0B0FBF2FCB0FB7F
:1005E000F2F302FB1C00303078541846491C0028F6
:1005F000F3D123462A463046BDE8F04100F07FBAE9
:10060000000000002D0000002B0000002000000072
:100610002DE9F05F894604464FF0000ADFF874B117
:10062000FB44C0F820A02046E1688847002874D029
:10063000252806D0D4E901219047206A401C206279
:10064000F1E700265F462046E168884720280546F6
:1006500007DB312D05D2781910F8200C08B10643BC
:10066000F1E7B00701D526F00406C4F81CA0002766
:10067000C4F818A02A2D09D0284607F00FF938B37E
:1006800004EB8708303DC8F8185019E059F8041BEE
:10069000204604EB87029161E1688847012F0546F7
:1006A00018D1E069002820DA26F020061DE0D8F8ED
:1006B000180000EB800005EB40003038C8F8180047
:1006C0002046E1688847054607F0E8F80028EED1A3
:1006D000012F0AD02E2D08D12046E16888477F1CC3
:1006E0000546022F46F02006C4DBA069002803DA85
:1006F000404246F00106A061F00701D026F0100646
:100700006C2D0BD0682D09D04C2D39D06A2D35D0E9
:10071000742D35D07A2D33D016E038E0E1682F46BD
:1007200020468847B842054609D16C2F26D04FF4A1
:100730008060E168064320468847054604E06C2F48
:100740001AD04FF4807006430DB3A5F1410019286B
:1007500002D8203546F400664A46294620462660DF
:100760004E46FFF71FFD80B101280BD0F61D26F085
:10077000070000F1080956E74020E4E78020D8E7A9
:100780000020D6E706F104094DE7284652E7206A23
:10079000BDE8F09FE4BE000040EA010310B59B07EE
:1007A0000FD1042A0DD310C808C9121F9C42F8D0DB
:1007B00020BA19BA884201D9012010BD4FF0FF308C
:1007C00010BD1AB1D30703D0521C07E0002010BDA2
:1007D00010F8013B11F8014B1B1B07D110F8013B2E
:1007E00011F8014B1B1B01D1921EF1D1184610BD0F
:1007F00040EA0103024630B59B0710D14FF00134A7
:1008000000E008C208C91D1B9D4315EAC41FF8D0AB
:1008100013F0FF0102F8011B0DD01B0AF8E711F8D5
:10082000013B002B02F8013B05D011F8013B002BE6
:1008300002F8013BF3D130BD10B5431C02E010F8C3
:10084000011B71B18107FAD14FF0013202C88C1A35
:100850008C4314EAC211F9D0C01A0A0603D0C01E94
:1008600010BDC01A10BD0A0401D0801E10BD0902BF
:10087000FCD0401E10BD032A40F2308010F0030C63
:1008800000F0158011F8013BBCF1020F624498BFE3
:1008900011F801CB00F8013B38BF11F8013BA2F180
:1008A000040298BF00F801CB38BF00F8013B11F0FB
:1008B000030300F0E382083AC0F0088051F8043BDB
:1008C000083A51F804CBA0E80810F5E7121D5CBF08
:1008D00051F8043B40F8043BAFF30080D20724BF3B
:1008E00011F8013B11F801CB48BF11F8012B24BFCF
:1008F00000F8013B00F801CB48BF00F8012B70471E
:1009000002F0FF0343EA032242EA024200F0EABA9D
:100910004FF0000200B5134694469646203922BF98
:10092000A0E80C50A0E80C50B1F12001BFF4F7AFE3
:10093000090728BFA0E80C5048BF0CC05DF804EBC5
:10094000890028BF40F8042B08BF704748BF20F833
:10095000022B11F0804F18BF00F8012B70470000E8
:100960004FF0013C50F8042B51F8043B9A4221D13E
:10097000A2EB0C03934313EACC1317D150F8042BCA
:1009800051F8043B9A4215D1A2EB0C03934313EAAE
:10099000CC130BD150F8042B51F8043B9A4209D1E7
:1009A000A2EB0C03934313EACC13DBD04FF000000F
:1009B000704700BFD01A01BAB1FA81F101F01801F5
:1009C00022FA01F0CB40C1F12001DBB2C0B2C01A63
:1009D0002CFA01F3D11A914311EAC311E6D1704701
:1009E000704770477047000000487047D466002089
:1009F000704770477047704738B504460A46002074
:100A00006946AFF30080002808BF38BD0246009950
:100A1000204600F08BFA012038BD012000F0A8BE6E
:100A2000F8B5AFF30080054600200C46102000BF4B
:100A30000646A819A0420DD9324669460020AFF3F8
:100A40000080070008BF00F093FE0098A04218BF86
:100A50000546C419FFF7C8FF05600746F01D20F0E2
:100A600007004619284600F00AF8B44208BFF8BD4E
:100A7000A21B31463868BDE8F84000F057BA0021A3
:100A80000160C0E9011070471020704770B504463E
:100A900085690068C10601D5302600E02026C00720
:100AA00007D070BDD4E9012130469047206A401C30
:100AB00020626D1EF6D570BD70B50446856900785C
:100AC000C00707D170BDD4E9012120209047206ADA
:100AD000401C20626D1EF6D570BD09684A0501D51F
:100AE00040B27047C905FCD500B2704709684A0595
:100AF00001D5C0B27047C905FCD580B270472DE959
:100B0000F0470D4699469246044600F124080168D4
:100B1000880604D5E06921F01001216000E0012081
:100B2000A84201DD471B00E00027A1697A1902EB0A
:100B30000900081AA0612078C00602D42046FFF7F9
:100B4000A5FF002608E0D4E901211AF80600904725
:100B5000206A401C761C20624E45F4DB2078C006DB
:100B60000AD52046FFF792FF06E0D4E901213020A4
:100B70009047206A401C2062381EA7F10107F4DC70
:100B800007E0D4E9012118F805009047206A401CCD
:100B90002062281EA5F10105F3DC2046FFF78CFF3B
:100BA0002078000602D50220BDE8F0870120FBE78F
:100BB00011680268006A530501D508700AE0D30580
:100BC00001D5088006E0130603D5C217C1E900026B
:100BD00000E008600120704701694A1C0261087842
:100BE000704700B58FB0CDE901310021059105496D
:100BF0007944CDE9031011466846FFF709FD0FB0AF
:100C000000BD0000E5FFFFFF0A6802F8010B0A6063
:100C1000704710B5436913B1AFF3008001E0FFF7EF
:100C200091FC012010BD127800F124010A7000220D
:100C30004A700122EDE711684FF0FF32E9E700004A
:100C40002DE9FF5F15468A460446DFF8AC80F8447C
:100C50000027D8E900103E46CDE9001010E03AF830
:100C600016106A4602A800F063FD411C07D02178E7
:100C7000890603D5E269391891420DD80744761CDC
:100C80002078800602D5E069B84205DDAE42E6DB99
:100C90003AF816000028E2D1A069C01BA0612046E6
:100CA000FFF7F4FED8E90010CDE90010002017E0AE
:100CB0003AF818106A4602A800F03AFDB0F1FF3F7A
:100CC00081460BD000250DF1080B05E0D4E9012188
:100CD0001BF8050090476D1C4D45F7D308F1010046
:100CE000B0428046E4DB206A384420622046FFF7A9
:100CF000E3FEBDE8FF9F0000CAB800002DE9F04107
:100D00008046D21D22F007020025D2E90002F52913
:100D100015A614D0011E72F1000106DA0023D0EBF3
:100D2000030063EB020211A608E0D8F800108B075D
:100D300001D50FA602E0490701D50EA601251146EF
:100D4000002408F1240704E000F00AF930323A5593
:100D5000641C50EA0102F7D12B4632462146404638
:100D6000BDE8F041FFF7CBBE000000002D00000001
:100D70002B0000002000000030B4002100F124040A
:100D800008E002F00705D208303542EA4372DB087A
:100D90006554491C52EA0305F3D10468002310A2EC
:100DA000250707D5A40600D421B1C46901230DA2EB
:100DB000641EC46130BCFFF7A2BE10B504462146D4
:100DC0001068FFF793FE02462046BDE8104000235E
:100DD000D2E7D21D22F00701D1E90023CCE70000C1
:100DE0000000000030000000F0B40D460188090545
:100DF00002D5214C7C4402E01F4C7C440E3400217F
:100E000000F1240608E002F00F071209E75D42EA4C
:100E100003721B097754491C52EA0307F3D1027885
:100E20000023120704D5702D06D009B10223113416
:100E30002246F0BCFFF763BE01231034F8E770B51B
:100E400004460D4621461068FFF750FE024629462B
:100E50002046BDE870400023C6E7D21D22F00703FC
:100E6000D3E90023C0E70368126843F0200303605E
:100E70000823C3610023B7E72CB7000010B5203A60
:100E8000C0F00B80B1E81850203AA0E81850B1E843
:100E90001850A0E81850BFF4F5AF5FEA027C24BFF9
:100EA000B1E81850A0E8185044BF18C918C0BDE8F0
:100EB00010405FEA827C24BF51F8043B40F8043BB9
:100EC00008BF7047D20728BF31F8023B48BF11F86E
:100ED000012B28BF20F8023B48BF00F8012B7047C8
:100EE0004FF000020429C0F0128010F0030C3FF410
:100EF00011ADCCF1040CBCF1020F18BF00F8012BAE
:100F0000A8BF20F8022BA1EB0C01FFF703BD5FEA9D
:100F1000C17C24BF00F8012B00F8012B48BF00F86A
:100F2000012B704700487047CC660020034640689C
:100F30008C46002818BF88423CBF03464068F8D35F
:100F400018681844884207D00CF1030020F007000D
:100F5000001D411A521A0146081D0A60FFF72BBAFC
:100F600030B5B0F10A024FEA900E71F100034EEA7B
:100F7000817EB0EB0E0061EB91014FEA101E4EEA4C
:100F8000017E10EB0E0041EB11114FEA102E4EEADC
:100F9000016E10EB0E0041EB11214FEA104E4EEAAC
:100FA000014E10EB0E0041EB1141401841F10001E0
:100FB0004FEAD00040EA41704FEAD10110EB8005C2
:100FC0004FEA810444EA907444EB01046D1944EB48
:100FD0000404521BA3414FF0000348BF0A3200D55E
:100FE00030BD401C41F1000130BD70472DE9FF4F7D
:100FF0000C461E464FF0FF378BB0D2E90001DDF8FA
:1010000060800A908A46C1F30A5505B93D46002121
:1010100008464FF00000BAF1000F00F4400005DA76
:1010200000EB80004FF4400101EA50004FEA905974
:10103000B9F1010F00DDB9460A9850EA4A000ED016
:1010400044F61050A5F2FF3545432F14B8F1000FB8
:101050001ED07542291E1EDDC9F100021CE0B8F148
:10106000010F4FF0000001D0302103E0F24305E012
:101070002154401CB042FBDB3046002200212154A9
:101080000B99C1F80880C1E900200FB0BDE8F08FCE
:10109000BD1B6D1CDEE74A4600DA694206A800F077
:1010A000E1FB06AB93E8070003AB83E8070050467B
:1010B0000A9900F0A5FC8DE80700A0F500501F3844
:1010C00000900398002D0ADD42F21F014A460844B1
:1010D000002303A90390684600F00EFF09E0A0F585
:1010E00000504A461F38002303A90390684600F0C9
:1010F00018FF8DE807000004000C03D04FF0FF300C
:10110000410800E01046B8F1000F03D00022009221
:1011100015461EE0751E05D4FFF722FF30326255DA
:101120006D1EF9D5B3460122084302D000227F1C70
:1011300004E02078302801D100227F1E002A099780
:1011400084D01DE0112D07DAFFF70AFF3032625517
:101150006D1C50EA0102F5D1084302D00098C8B1D5
:101160000EE00021681E05E0235C625C635422549B
:10117000401E491C8142F7DBAB46A81B401E09906C
:10118000002004F80B000B98099AC0F80880C0E909
:10119000002B7AE711264FF0000857E72DE9F04FB2
:1011A00088460446D21D22F0070191B0D1E9000122
:1011B000CDE90A0106F04EFB02460B98C00F01D0A4
:1011C0002D2007E02068810701D52B2002E0202197
:1011D00001EAC000032A099001D0072A05DB034673
:1011E0004146204600F0FEFA0BE12078800601D54A
:1011F000E06900E00620B8F1650F814606D0B8F13D
:10120000660F18D0B8F1670F70D131E00020B9F146
:10121000110F009001DB112301E009F101030AAA7B
:1012200001A90CA8FFF7E2FEDDE90C70002609F128
:101230000105834647E001204B4600904FF00047F0
:101240000AAA01A90CA8FFF7D1FEDDE90DB00C999F
:101250005D46002610B909F101000D18B9EB050033
:1012600003D4C0F1FF3609F10105A5EB09002BE01D
:10127000B9F1010F01DA4FF001090020B9F1110FA6
:101280000090484601DD112300E003460AAA01A9A7
:101290000CA8FFF7ABFEDDE90C704D460026834637
:1012A000207800070AD4AB4500DA5D4601A8012D7D
:1012B00004DD411911F8011C302907D04F4502DA2D
:1012C00017F1040F04DA012082460FE06D1EEEE7ED
:1012D000002F02DCED1B3E4403E0781CA84200DD39
:1012E0007D1CB81B00F1010A4FF000472078000771
:1012F00003D4AA4501DB4FF0FF3A0021B7F1004FBC
:101300000DF143088DF8431024D002202B23002F29
:1013100001DA7F422D230A21021EA0F1010000DC28
:101320005FB197FBF1FC97FBF1F201FB1C7C1746C8
:101330000CF1300C08F801CDEEE7A8F101000370C4
:101340002188090501D5452100E06521A0F10108AA
:1013500000F8011C09980FA9A1EB0807FF1D00B1B7
:101360000120411901EBEA70A1693844081A401EB6
:10137000A0612078C00602D42046FFF787FB0998B9
:1013800028B1D4E901219047206A401C20622078CE
:10139000C00622D52046FFF779FB1EE0002E04DBB5
:1013A000B34502DD01A8805D00E03020D4E90121D1
:1013B0009047206A401C2062761CAAF101005FEA77
:1013C000000A0AD100F00AFAC0680168405CD4E95A
:1013D00001219047206A401C2062281EA5F10105CA
:1013E000DCDC07E0D4E9012118F8010B9047206A02
:1013F000401C2062381EA7F10107F3DC2046FFF7EE
:101400005BFB032011B041E62DE9F04F04460D4689
:10141000D21D22F0070089B0D0E90097484639462E
:1014200006F018FA0246F80F01D02D2307E02068D5
:10143000810701D52B2302E0202101EAC0038DF8AA
:1014400020300BB1012000E00020032A824601D0A9
:10145000072A04DB2946204600F0C4F93FE1207842
:10146000800601D40D2500E0E569C7F30A560D2D6D
:1014700049DA00214FEA175B08464FF00000002FC1
:1014800000F4400007DA00EB80004FF4400100EB6D
:10149000D07001EA60008115012901DD4FF0FF31B4
:1014A00000224FEA850CBCF1180F06D31346ACF1AD
:1014B00018004FF08052C24003E04FF4801323FA2B
:1014C0000CF30CF10C0CBCF1200F04D3ACF1200C8C
:1014D00009FA0CF001E007FA0CF000294FF000487F
:1014E00001DD18B90FE00ED140450CD319EB02090C
:1014F0005F4121B9404502D19F4329EA0209BBEB74
:10150000175F00D0761C2088000502D57B48784400
:1015100002E07A487844193808AA302302F80A30E1
:10152000037C0AF10101002E0AF1020A53546A46B3
:1015300002DC4FF0300101E04FF031014FF00108C3
:101540008DF8001002D0A6F2FF3603E059EA4701F9
:1015500000D06B4E002D02DC2178090704D54FF036
:1015600002082E218DF80110C44600210BE0C7F3BC
:1015700003433F01C35C491C6D1E02F80830052976
:1015800008F1010801DA002DF1DC00210CE000EB8C
:101590001973491C1B786D1E082902F808304FEAA0
:1015A000091908F1010801DA002DF0DC21688B0629
:1015B00002D516E0A8F10108E04505DD02EB0803BD
:1015C00013F8013C302BF5D0B8F1000F09DD02EB28
:1015D000080313F8013C2E2B03D1090701D4A8F10D
:1015E0000108002D05DD3E2102F808106D1E08F1EE
:1015F0000108407C002E02F8080008F1010804DA16
:101600002D20764202F8080002E02B2002F80800A4
:101610000A214FF47A70864208F101080BDB96FB31
:10162000F0F3303302F8083096FBF0F308F10108CC
:1016300000FB136601E0642E0CDB642096FBF0F3E4
:10164000303302F8083096FBF0F308F1010800FB94
:10165000136601E00A2E06DB96FBF1F0303002F84B
:10166000080008F1010896FBF1F001FB1060303032
:1016700002F80800A16908F1010808EB050202EB75
:101680000A00081AA0612078C00602D42046FFF79D
:10169000FDF9216A08AE01EB0A00206204E0D4E9FA
:1016A000012116F8010B9047BAF1010AF7D2207810
:1016B000C00602D52046FFF7E9F96E4609E016F8A4
:1016C000010B3E280FD0D4E901219047206A401C2D
:1016D0002062B8F10108F2D22046FFF7EDF909B017
:1016E0000320BDE8F08F206A2844206203E0D4E99B
:1016F0000121302090476D1EEBD3F8E74DB000007C
:1017000002FCFFFF10B5436913B1AFF3008001E0A5
:10171000FFF796FA012010BD128800F1240182849F
:101720000022C2840122EDE711684FF0FF32E9E7A1
:1017300070B516460C46054600F048F8036893F865
:101740000101012806D0FF2C0FD8185D68B10120D7
:101750002C7070BDD3F807013246214603F20713FF
:1017600003442846BDE8704018474FF0FF3070BD75
:1017700010B500F0F7F8BDE8104000F0EEB8704783
:101780007546FFF7CFFBAE4605006946534620F08D
:101790000700854618B020B5FEF7CCFDBDE8204017
:1017A0004FF000064FF000074FF000084FF0000B1D
:1017B00021F00701AC46ACE8C009ACE8C009ACE8D0
:1017C000C009ACE8C0098D467047000010B500F0B4
:1017D00005F8001D10BD00BF45A10000004870477E
:1017E000EC6600202DE9F0411F46044603260168FF
:1017F000072A01F4006004DB08B116A505E016A570
:1018000003E008B115A500E015A521F01000206047
:10181000A069C01EA0610FB1401EA0612046FFF765
:1018200035F94FB1D4E9012138469047206A401C70
:101830002062C01C206206E0206AFAE7D4E9012198
:1018400015F8010B9047761EF8D22046FFF734F9C1
:10185000BDE8F0814E414E006E616E00494E46007B
:10186000696E66002DE9F047814616468AB0354814
:1018700078440DC88DE80D0032487844801C03ACD4
:101880000DC884E80D0041F69B300844372190FBD9
:10189000F1F290FBF1F5A5F1800501FB12041B3C70
:1018A00002D56442012000E00020DFF898A08046C5
:1018B0000027FA44AAF1BE0A0EE0E0070AD0324639
:1018C000684607EB470101230AEB810100F029FB81
:1018D0008DE8070064107F1C002CEED1194F7F4467
:1018E000AE3F19E0E80715D007EB04100DF1180A18
:1018F00090E80E008AE80E00C068F04201D1981905
:1019000008903246012306A903A800F00AFB03ABA6
:1019100083E807006D10641C002DE3D14FF0010334
:1019200032466946B8F1000F03A802D000F0E4FA8D
:1019300001E000F0F6FAC9E90001C9F808200AB090
:10194000BDE8F0877CAD000010B50446AFF3008021
:101950002046BDE81040FEF78CBC002801D000F006
:1019600029B8704710B5012805D0002103A000F068
:1019700027F8012010BD09A1F8E70000534947529C
:10198000544D454D3A204F7574206F66206865614F
:1019900070206D656D6F7279000000003A20486517
:1019A0006170206D656D6F727920636F72727570F2
:1019B0007465640001491820ABBEFEE726000200F2
:1019C00070B505460C460A2000E06D1C00F011F8C9
:1019D00035B128780028F8D102E0641C00F009F83D
:1019E00014B120780028F8D1BDE870400A20AFF388
:1019F000008008B569468DF800000320ABBE08BD25
:101A00005FEA400C08BF91F0000F4FEA8C234FEAC9
:101A1000C12243EA51514FEA1C5018BF00F5F04073
:101A20004FEA300018BF41F000415FEA6C5C00F003
:101A30002980BCF1FF3F08BF40F080407047130C85
:101A400006BF12044FF0100C4FF0000C130E04BF31
:101A500012020CF1080C130F04BF12010CF1040C5C
:101A6000930F04BF92000CF1020CD30F04BF52007D
:101A70000CF1010C11464FF00002A0F11F00A0EB89
:101A80000C00704711F0004F08BF704731F0004163
:101A90003FF4D5AF0B0C06BF09044FF0100C4FF00C
:101AA000000C0B0E04BF09020CF1080C0B0F04BF55
:101AB00009010CF1040C8B0F04BF89000CF1020C1E
:101AC000CB0F04BF49000CF1010CCCF12003A0EBBB
:101AD0000C0022FA03F302FA0CF241EA030100F1CE
:101AE0000100704720F07F4C80EA030023F07F471D
:101AF000ACEB070303F57C5300F0004003F1FF0358
:101B00002DE980494FEA154B09B44FEA144325EA01
:101B10000B4E24EA03480FF2042606EB132749086C
:101B20003E785FEA320203FB0667C7F5000707FB52
:101B300006F64FEA54374FEAD64606F1020607FB8F
:101B4000066CCCF1005C4FEA1C472CEA074C07FB03
:101B500006F40CFB06F504EB15464FEA961634BF67
:101B600000204FF000404FEAD13706FB07FC4FEA58
:101B70001C4C0CFB0BF7D21B03FB0CF761EB0701B2
:101B80000CFB0EF7B0EB074072EB17420CFB08F7AB
:101B900034BFA2EB0742B2EB074261EB17414FEAB9
:101BA0000C444FEA910706FB07FC4FEA1C4C0CFB68
:101BB0000BF7B0EBC74072EB573203FB0CF734BFA7
:101BC000A2EBC742B2EBC74261EB57310CFB0EF7F9
:101BD000B0EBC70072EB57720CFB08F734BFA2EBF7
:101BE000C702B2EBC70261EB5771039F4FEA8161F5
:101BF00041EA921104EBCC044FEAD1374FEA8262FA
:101C000006FB07FC42EA90124FEA80604FEA1C4C48
:101C10000CFB0BF7D21B03FB0CF761EB07010CFB72
:101C20000EF7B0EB074072EB17420CFB08F734BF1E
:101C3000A2EB0742B2EB074261EB17414FEA8C552A
:101C40004FEA910704EB9C2406FB07FC4FEA1C4C6F
:101C50000CFB0BF7B0EBC74072EB573203FB0CF7F2
:101C600034BFA2EBC742B2EBC74261EB57310CFB6A
:101C70000EF7B0EBC70072EB57720CFB08F734BFDE
:101C8000A2EBC702B2EBC70261EB577115EB4C2513
:101C90004FEA816141EA92114FEA82624FEAD137FD
:101CA00042EA901206FB07FC44F100044FEA806010
:101CB0004FEA1C4C0CFB0BF7D21B03FB0CF761EB40
:101CC00007010CFB0EF7B0EB074072EB17420CFB61
:101CD00008F734BFA2EB0742B2EB074261EB1741B2
:101CE00015EB1C154FEA813141EA92414FEA8232ED
:101CF00042EA90424FEA80304FEA0C7644F1000409
:101D000048EA03434EEA0B484FF0000EB2EB080CD2
:101D100071EB030724BF624639464EEB0E0E4FF0BF
:101D2000000B0018524149414BEB0B0BB2EB080C76
:101D300071EB03077BF1000B24BF624639464EEB83
:101D40000E0E4FF0000B0018524149414BEB0B0BAC
:101D5000B2EB080C71EB03077BF1000B24BF62466A
:101D600039464EEB0E0E51EA020718BF46F0010647
:101D700016EB0E7655F1000254F1000103D5BDE8D3
:101D80008901BDE80088BDE88901BDE80048B619B1
:101D9000524141EB0101A3F10103704780807F7E36
:101DA0007D7C7B7A797877767675747372717170D1
:101DB0006F6E6E6D6C6C6B6A6A6968686766666583
:101DC0006464636362616160605F5F5E5E5D5D5C11
:101DD0005C5B5B5A5A595958585757565655555582
:101DE0005454535352525251515050504F4F4F4EE2
:101DF0004E4D4D4D4C4C4C4B4B4B4A4A4A49494930
:101E00004848484747474746464645454544444471
:101E1000444343434342424242414141002B9C469A
:101E200030D477002BD01CB54FEA370703B44FF0FE
:101E300010004FF01001BAF1000F06D0BCF1000FF6
:101E4000DCBF40F0080040F008014FF000000FBC7C
:101E5000BDE810400BF1010BBBF1010F08BF5FEAB9
:101E6000170722BF12F1010211F101014FF00041E9
:101E700043F1000300F0004043EA00007047F9D34B
:101E80005708D0E746EA064613F1400F4FEA1646D8
:101E90001FDD13F1200FDFBF16430A460021203358
:101EA0005B42BED0C3F1200746EA064602FA07F7B6
:101EB0004FEA164646EA0706C3F1200722FA03F264
:101EC00001FA07F721FA03F14FF0000342EA070293
:101ED000A7E746EA020646EA06464FEA164646EAFB
:101EE0000106BCBF46EA0646360C4FF000034FF031
:101EF00000024FF0000194E72DE9804C9A4693468A
:101F000070B491E8380007C831EA400C48BF34EAA1
:101F1000430C03D5FFF7E6FDFFF780FFF0BCBDE8FB
:101F2000008C2DE9804C9A46934670B491E83800B5
:101F300007C810F0804F08BF13F0804F03D100F0A6
:101F400005F8FFF76BFFF0BCBDE8008C20F07F4781
:101F500080EA030023F07F4C07EB0C03A3F57C53CE
:101F600000F00040A3F1FE0392F0000F00F0B380F8
:101F700095F0000F00F077802DE901494FEA1140FC
:101F80004FEA144621EA004800FB06FC24EA064713
:101F900008FB06F607FB08F800FB07F718EB0648F6
:101FA0004CEB164C4FEA124B18EB07484FEA15461C
:101FB0004CEB174022EA0B4E0BFB06FC25EA0647CA
:101FC0000EFB06F607FB0EFE0BFB07F71EEB064E9D
:101FD0004CEB164C4FF000061EEB074E4CEB174B2C
:101FE00018EB0B0840F1000018EB0E0B58EB000843
:101FF00040F100008F1A4FF000013CBFC943661B3F
:1020000014BFB5EB040C00213CBFC943F61B4FEADB
:1020100017444EEA8E0E27EA04454FEA1C4704FB9C
:1020200007622CEA074C05FB07F70CFB05F604FBDF
:102030000CFC16EB074642EB174216EB0C4642EB44
:102040001C421BEB060658EB0202414146EA9E0683
:1020500001D5BDE80189B619524141EB0101A3F157
:102060000103BDE801894FEA14454FEA114724EA0C
:10207000054621EA074C05FB07F406FB07F70CFBB6
:1020800006F105FB0CFC11EB074144EB17444FEA4A
:10209000124711EB0C4144EB1C4422EA074C05FBB0
:1020A00007F206FB07F70CFB06F605FB0CFC16EB2C
:1020B000074642EB174216EB0C4642EB1C456A18EA
:1020C00054F1000148BF7047B619524141EB01017C
:1020D000A3F10103704795F0000F37D04FEA11428A
:1020E0004FEA144721EA024624EA074C02FB07F1B3
:1020F00006FB07F70CFB06F402FB0CFC14EB074491
:1021000041EB17414FEA154714EB0C4441EB1C41DE
:1021100025EA074C02FB07F506FB07F70CFB06F662
:1021200002FB0CFC16EB074645EB174516EB0C467D
:1021300045EB1C42121951F1000148BF7047B61916
:10214000524141EB0101A3F1010370474FEA1445ED
:102150004FEA114724EA054621EA074C05FB07F13F
:1021600006FB07F70CFB06F24FF0000605FB0CFC24
:1021700012EB074241EB174112EB0C4251EB1C41B1
:1021800048BF7047921841EB0101A3F1010370476A
:10219000FEE710B5446A204600F094F90120207152
:1021A00010BD10B5446A204600F018F901202071D6
:1021B00010BD10B5446A206940F00400206120463B
:1021C00000F0B0F90120207110BD10B5446A2069FB
:1021D00040F004002061204600F002F90120207147
:1021E00010BD10B5406A00F085F910BD10B5406A09
:1021F00000F0F5F810BD0000014800F009BC000037
:1022000028030020014800F003BC00002401002046
:1022100030B590F840500124AC40C56B6C60046848
:1022200063604368102B036803D099600068C26044
:1022300030BD9A600068C16030BD10B510B109B101
:1022400000230BE04FF0FF3010BD31F8134004F5D0
:10225000004444F30B1420F813405B1C9342F4DB5E
:10226000104610BD7047000072B602A1054805F087
:1022700053F8FAE74572726F722048616E646C65BC
:1022800072000000E0020020002200F001B800000F
:1022900030B50E4B054601205C7A012C15D8587AD2
:1022A00000241C54587A03EB800045605D7A03F1EA
:1022B00008002A54587A421C5A72303008703A206A
:1022C00048702F208870CC70002030BDC066002080
:1022D000002100F001B800000B4910B502464B7A0E
:1022E0000120002B0FD01278303AD2B201EB8203DA
:1022F0005C68002C07D000200A4458601072487AAD
:10230000401E4872002010BDC0660020F0B52E4867
:1023100085B0816941F480518161816901F4805106
:102320000491816941F004018161816901F0040136
:102330000491816941F0400181618069012600F0CA
:1023400040000490032020240227CDE902601F4DA5
:10235000CDE900476946284600F0BCFD802000908A
:102360006946284600F0B6FD69462846009400F00C
:10237000B1FDE00000906946284600F0ABFD002565
:10238000CDE900656946124800F0A4FD124C1148E1
:1023900020600820A560E0610720C4E90A50C4E974
:1023A0000357256270026562C4E905604FF48270CC
:1023B0006060204601F000FD2068016841F04001A6
:1023C000016005B0F0BD00000010024000080140AF
:1023D0000018014000300140285A00207047704723
:1023E000704700002DE9F04116460D46040049D023
:1023F000002D47D02868A0B1042812D00C2810D096
:1024000014280ED01C280CD024280AD02C2808D040
:10241000342806D03C2804D040F2F1311BA005F04E
:1024200045FA686830B1022804D040F2F23117A0B2
:1024300005F03CFA36B1102E04D040F2F33113A06F
:1024400005F034FA607901281ED001276771022057
:1024500020712368186806F0100240F6FE71914062
:102460008843D5E90015294391400143196020684C
:102470000168C02393409943016027710020607177
:10248000BDE8F0810120FBE70220F9E72E2E2F4462
:102490007269766572732F53544D333246317878B2
:1024A0005F48414C5F4472697665722F5372632FA7
:1024B00073746D3332663178785F68616C5F646124
:1024C000632E630008B50020009008486946006844
:1024D00008F05CF90098012806D10549000708605A
:1024E000BFF34F8FBFF36F8F08BD000018000020AF
:1024F00004ED00E008B50020009008486946006837
:1025000008F044F90098012806D105490007086041
:10251000BFF34F8FBFF36F8F08BD0000180000207E
:1025200004ED00E00421014800F0A6BE00100140C7
:1025300070B504000CD00D492068884204D040F2E8
:102540002B110BA005F0B2F92079002510B105E0A0
:10255000012070BD6571204600F026F80220207130
:10256000256101202071002070BD00000074004032
:102570002E2E2F447269766572732F53544D333269
:10258000463178785F48414C5F4472697665722FB6
:102590005372632F73746D3332663178785F68617C
:1025A0006C5F6461632E6300F0B585B0002605465C
:1025B000009601960296039600681A4988422ED129
:1025C0001949C86940F00050C861C86900F000505E
:1025D0000490886940F0040088618869102700F041
:1025E000040004900320CDE9007069460F4800F014
:1025F00071FC104C0E48C4E900078020C4E9026059
:1026000040002061800060612020C4E90606204669
:1026100000F022FB08B1FFF727FEAC60656205B051
:10262000F0BD0000007400400010024000080140AE
:10263000300402402401002070B50D46040027D06C
:1026400035B1102D04D04FF4E87118A005F02EF923
:10265000607901281ED0012060710221217121685A
:102660000E6805F0100200FA02F31E430E602168A6
:1026700095B10B6803F470153C2393409D4203D140
:102680004A6842F002024A6020710020607170BD09
:10269000012070BD022070BD0A68C2F383020F2AB8
:1026A000F2D14A6842F00102EDE700002E2E2F44DD
:1026B0007269766572732F53544D33324631787890
:1026C0005F48414C5F4472697665722F5372632F85
:1026D00073746D3332663178785F68616C5F646102
:1026E000632E63002DE9F0479946089F90460D46FA
:1026F00004002DD035B1102D04D040F2372130A088
:1027000005F0D4F847B1042F06D0082F04D04FF4B9
:102710000E712BA005F0CAF8607901281BD00126A4
:10272000667102202071C5B1E16833488862E168B2
:102730003248C862E168324808632068016841F0A5
:10274000805101601FB32268042F23D01C3222E085
:102750000120BDE8F0870220FBE7A16829488862D4
:10276000A1682948C862A1682848086320680168F0
:1027700041F48051016027B12268042F04D0103247
:1027800003E02268083200E00C32A06804E022680E
:10279000143200E01832E0684B46414600F034FB4A
:1027A0000021617120B1216941F004012161D0E76C
:1027B00021680A6805F010039E4032430A60C8E7AA
:1027C0002E2E2F447269766572732F53544D333217
:1027D000463178785F48414C5F4472697665722F64
:1027E0005372632F73746D3332663178785F68612A
:1027F0006C5F6461632E6300A3210008ED21000873
:10280000CB21000893210008E3210008B321000830
:1028100070B50D4604001ED035B1102D04D040F225
:10282000BB210FA005F042F82068026805F01001F6
:102830004FF480538B409A4302602068026801265F
:1028400006FA01F18A4302603DB1E06800F024F825
:102850002671002070BD012070BDA068F6E7000061
:102860002E2E2F447269766572732F53544D333276
:10287000463178785F48414C5F4472697665722FC3
:102880005372632F73746D3332663178785F686189
:102890006C5F6461632E630010B590F82110002214
:1028A000022905D00421816380F82020012010BD79
:1028B00001680B6823F00E030B6001680B6823F0BE
:1028C00001030B6090F84030C46B012101FA03F35F
:1028D000636080F8211080F82020104610BD0000B1
:1028E0002DE9F05F90F821100024022903D0042183
:1028F0008163012485E001680A6822F00E020A6003
:1029000001680A6822F001020A603F4E3E4FB2158C
:10291000DFF8F4C0DFF8F090DFF8ECA0DFF8E8B003
:10292000DFF8E4E00168783F13011502ACF1640CB4
:10293000A9F15009AAF13C0AABF1280BAEF1140E33
:102940004FF48018B14227D9B9420ED0614512D058
:1029500049451DD0514518D0594518D0714501D170
:10296000424615E0294EB14201D1012210E0274E26
:102970001436B14201D110220AE0244E2836B14269
:1029800006D0224A3C32914201D11A4600E02A4642
:102990001E49091F0A602BE0B94213D0614517D0C8
:1029A000494522D051451DD059451DD0714501D111
:1029B00042461AE0B14202D14FF0807215E0134E48
:1029C000B14201D1012210E0104E1436B14201D1C2
:1029D00010220AE00D4E2836B14206D00B4A3C3296
:1029E000914201D11A4600E02A46074980394A60DF
:1029F000012180F82110002180F82010416B01B1E5
:102A000088472046BDE8F09F80000240080402404D
:102A10002DE9F05FC16B0A6801680B68046C4FF028
:102A2000040808FA04F8844D844E854FDFF814C278
:102A3000DFF81492DFF814A2DFF814B2DFF814E222
:102A400018EA020F65D05FEA437862D50A689206F9
:102A500003D40A6822F004020A60DFF8F0814FF420
:102A60008062016808F1140813011402414524D959
:102A7000A9420DD0B1420FD0B9421AD0614515D04C
:102A8000494515D0514501D1120312E0594501D1F4
:102A900004220EE0714501D140220AE06D4D14354B
:102AA000A94206D06B4A2832914201D11A4600E071
:102AB00022466749091F0A6029E0A94213D0B142A2
:102AC00015D0B94220D061451BD049451BD0514596
:102AD00002D14FF4800217E0414502D14FF08062ED
:102AE00012E0594501D104220EE0714501D1402286
:102AF0000AE0584D1435A94206D0564A2832914270
:102B000001D11A4600E022464B4908394A60C16AA1
:102B100071E04FF0020808FA04F818EA020F70D0CA
:102B20005FEA83786DD50A68920606D40A6822F0B7
:102B30000A020A60012180F82110DFF810814FF4A9
:102B40000072016808F1140813011402414524D9E8
:102B5000A9420DD0B1420FD0B9421AD0614515D06B
:102B6000494515D0514501D1120312E0594501D113
:102B700002220EE0714501D120220AE0354D1435C4
:102B8000A94206D0334A2832914201D11A4600E0C8
:102B900022462F49091F0A6029E0A94213D0B142F9
:102BA00015D0B94220D061451BD049451BD05145B5
:102BB00002D14FF4001217E0414502D14FF00072EC
:102BC00012E0594501D102220EE0714501D12022C7
:102BD0000AE0204D1435A94206D01E4A28329142FF
:102BE00001D11A4600E02246134908394A60002103
:102BF00080F82010816A00291CD0BDE8F05F0847EA
:102C0000FFE70825A540154214D01A0712D50A6817
:102C100022F00E020A6090F84020C36B012101FAF5
:102C200002F25A60816380F82110002180F82010A0
:102C3000016BE0E7BDE8F09F080002401C00024085
:102C40003000024044000240580002406C00024044
:102C5000080402401C04024070B504007ED05A49AA
:102C600020685A4D88422DD057491431884229D0C6
:102C700055492831884225D053493C31884221D0DA
:102C80005149503188421DD04F496431884219D092
:102C90004D497831884215D0A84213D04B491431A0
:102CA00088420FD04949283188420BD047493C31EE
:102CB000884207D045495031884203D0992144A029
:102CC00004F0F4FD606840B1102806D0B0F5804FE4
:102CD00003D09A213EA004F0E9FDA068402804D06A
:102CE00018B19B213AA004F0E1FDE068802804D0EF
:102CF00018B19C2136A004F0D9FD206948B1B0F587
:102D0000807F06D0B0F5007F03D09D2130A004F075
:102D1000CDFD606948B1B0F5806F06D0B0F5006FA9
:102D200003D09E212AA004F0C1FDA06928B120286B
:102D300003D09F2126A004F0B9FDE06960B1B0F591
:102D4000805F09D0B0F5005F06D0B0F5405F03D0DA
:102D5000A0211FA004F0AAFD142000E00CE02168CF
:102D6000A9420BD2184A52420A44B2FBF0F080004A
:102D70002064154808380AE0012070BD134A524209
:102D80000A44B2FBF0F08000206410480838E06389
:102D9000022084F821000A6843F6F0708243F4E9C7
:102DA00001031843D4E902352B4318432369184320
:102DB00063691843A36918431043086000206063E7
:102DC00001216177207770BD0800024008040240AD
:102DD0002E2E2F447269766572732F53544D333201
:102DE000463178785F48414C5F4472697665722F4E
:102DF0005372632F73746D3332663178785F686114
:102E00006C5F646D612E63002DE9F04188460446D5
:102E10000025581E4FF6FF711E461746884204D300
:102E20004FF4B7711DA004F041FD94F82000012873
:102E30000DD0012084F8200094F8211000200129F1
:102E400007D084F8200002252846BDE8F081022042
:102E5000FBE7022184F82110A0632068016821F0BB
:102E60000101016033463A4641462046FFF7D0F95A
:102E7000E06A00282068016802D041F00E0106E0F7
:102E800021F0040101602068016841F00A0101603D
:102E90002068016841F001010160D5E72E2E2F4422
:102EA0007269766572732F53544D33324631787898
:102EB0005F48414C5F4472697665722F5372632F8D
:102EC00073746D3332663178785F68616C5F646DFE
:102ED000612E63002DE9F84F0027DFF8BCA2DFF870
:102EE000BCB20D460446B946504514D05C4512D0DC
:102EF000AB4884420FD0AB4884420CD0AA488442ED
:102F000009D0AA48844206D0A948844203D0BD21F2
:102F1000A8A004F0CBFC28680104090C01D0000C27
:102F200003D0BE21A3A004F0C1FC686800281FD014
:102F30000128FCD01128FAD00228F8D01228F6D0A7
:102F4000AB498842F3D0AB498842F0D0AA498842C5
:102F5000EDD0AA498842EAD0A9498842E7D0A949D8
:102F60008842E4D00328E2D0BF2192A004F09EFC66
:102F70000BE1012000FA07F801EA0806464574D182
:102F8000544514D05C4512D0854884420FD0854802
:102F900084420CD08448844209D08448844206D0BC
:102FA0008348844203D0CD2182A004F07FFC904866
:102FB00069680A1A814259D00EDC032975D006DCF3
:102FC000002953D0012919D0022969D131E01129F2
:102FD00021D0122964D13AE0B2F5881F46D006DC30
:102FE000B2F5803F42D0B2F5801F59D13EE0B2F534
:102FF000001F3BD0B2F5041F52D137E0E868022829
:1030000007D0012805D0032803D0D52169A004F0FA
:103010004DFCE8683EE0E868022807D0012805D0AA
:10302000032803D0DC2163A004F040FCE868001D05
:1030300030E0E868022807D0012805D0032803D033
:10304000E3215CA004F032FCE868083022E0E86884
:10305000022807D0012805D0032803D0EA2155A073
:1030600004F024FCE8680C3014E08DE0A86880B11E
:10307000012811D0022807D0F7214EA004F016FC39
:10308000A86830B1012807D04FF00809C4F81480AF
:1030900006E00420814603E04FF00809C4F81080E0
:1030A000FF2E05D8224605E0FFE74FF00000F1E7CC
:1030B00004F104024FEA870001D9A0F1200013684F
:1030C0004FF00F0101FA00FC23EA0C0309FA00FC9F
:1030D00043EA0C0313606868C00055D54A4882690A
:1030E00042F001028261806927F0030200F00100D2
:1030F0000090464813189868BA07120F9140884309
:10310000544501D1002118E05C4501D1012114E0B2
:1031100023498C4201D102210FE022498C4201D186
:1031200003210AE020498C4201D1042105E01F4916
:103130008C4201D1052100E00621914001439960B4
:103140006868C0023248016801D5314300E0B143EC
:103150000160686880022F48016801D5314300E0B2
:10316000B1430160686880032B48016801D5314391
:1031700000E0B14301606868C0032848016801D5D8
:10318000314300E0B14301607F1C2E683146FE40B0
:103190007FF4EFAEBDE8F88F00080140000C01405D
:1031A000001001400014014000180140001C0140C3
:1031B000002001402E2E2F447269766572732F53C2
:1031C000544D3332463178785F48414C5F447269E0
:1031D0007665722F5372632F73746D333266317854
:1031E000785F68616C5F6770696F2E630000000034
:1031F000000011100000211000003110000012101A
:1032000000002210000032100010024000000140B7
:10321000080401400C040140040401400004014082
:1032200070B50C00054604D14FF4DA7103A004F028
:103230003DFBA868204000D0012070BD2E2E2F44F9
:103240007269766572732F53544D333246317878F4
:103250005F48414C5F4472697665722F5372632FE9
:1032600073746D3332663178785F68616C5F677054
:10327000696F2E630000000070B50C00054604D194
:103280004FF4F67105A004F011FBE96824EA01008F
:10329000214040EA0140286170BD00002E2E2F44DD
:1032A0007269766572732F53544D33324631787894
:1032B0005F48414C5F4472697665722F5372632F89
:1032C00073746D3332663178785F68616C5F6770F4
:1032D000696F2E630000000070B515460C000646AD
:1032E00004D14FF4EA7108A004F0E0FA45B1012DD1
:1032F00004D040F2D51104A004F0D8FA346170BDB6
:103300002004306170BD00002E2E2F447269766556
:1033100072732F53544D3332463178785F48414CA5
:103320005F4472697665722F5372632F73746D33C5
:1033300032663178785F68616C5F6770696F2E63A1
:103340000000000001488068704700002000002055
:103350000248816802781144816070472000002093
:10336000074810B5016841F010010160032000F02A
:10337000F5F80F2000F006F800F04AF8002010BD24
:103380000020024030B505461C4887B0816941F4F1
:1033900000618161806906A900F40060009001A8C5
:1033A00000F032FA00F08AFA1549164AB0FBF1F142
:1033B0001548491E0260416040F2E7320021C0E931
:1033C00003218160816100F0EDFE040012D10E48FE
:1033D00001F04EF804000DD1192000F03DF8102D39
:1033E00007D200222946192000F068F80748056036
:1033F00000E0012407B0204630BD0000001002406C
:1034000040420F00002C01406C03002024000020EB
:103410000F4808B5816941F001018161816901F0BE
:1034200001010091C16941F08051C161C069002270
:1034300000F0805000900F21901E00F03FF80548EA
:10344000416821F0E06141F00071416008BD000079
:10345000001002400000014010B5040003D5BD215A
:1034600007A004F023FA002C09DB04F01F0101205F
:1034700088406109890001F1E021C1F8000110BD17
:103480002E2E2F447269766572732F53544D33324A
:10349000463178785F48414C5F4472697665722F97
:1034A0005372632F73746D3332663178785F68615D
:1034B0006C5F636F727465782E63000070B515469B
:1034C0000C460646102A03D3A92114A004F0EEF9F5
:1034D000102C03D3AA2111A004F0E8F91E480068BB
:1034E000C0F30223C3F107022046042A00D90422B4
:1034F000191D072901D2002300E0DB1E012404FA74
:1035000002F1491E014099409C40641E2C40214319
:103510003046BDE8704004F0B1B900002E2E2F44B3
:103520007269766572732F53544D33324631787811
:103530005F48414C5F4472697665722F5372632F06
:1035400073746D3332663178785F68616C5F636F76
:10355000727465782E6300000CED00E010B504462F
:1035600007280BD0062C09D0052C07D0042C05D039
:10357000032C03D0912108A004F098F9154904F018
:10358000070208684FF6FF03184040EA0220124A7B
:103590001043086010BD00002E2E2F44726976651E
:1035A00072732F53544D3332463178785F48414C13
:1035B0005F4472697665722F5372632F73746D3333
:1035C00032663178785F68616C5F636F72746578BA
:1035D0002E6300000CED00E00000FA052DE9F04735
:1035E0000F46050078D02868C1070AD1810708D4A2
:1035F000410706D4000704D440F236316FA004F02E
:1036000055F947B1012F06D0022F04D040F23731CF
:103610006AA004F04BF9774E306800F00700B8421A
:1036200009D2306820F0070038433060306800F07D
:103630000700B84277D128686F4C810729D5400729
:1036400003D5606840F4E06060602878000703D527
:10365000606840F460506060A868A0B1802812D013
:10366000902810D0A0280ED0B0280CD0C0280AD0A6
:10367000D02808D0E02806D0F02804D040F25D31F0
:103680004EA004F013F96068A96820F0F000084328
:1036900060602878C00737D0686868B101281CD0FE
:1036A00002281DD04FF4597144A004F0FFF8686857
:1036B000012812D0022813D020688007002832DAAF
:1036C0006068696820F0030008436060FFF73AFE15
:1036D000804641F2883910E025E020688003EDE75C
:1036E00020688001EAE700BFFFF72CFEA0EB08018D
:1036F000494502D90320BDE8F0876068696800F099
:103700000C00B0EB810FEFD1306800F00700B84239
:103710000BD9306820F0070038433060306800F083
:103720000700B84201D00120E5E728784FF4806611
:1037300040074FF4A0674FF4C0684FF4E06914D518
:10374000E86860B1B0420AD0B84208D0404506D01F
:10375000484504D040F2A23118A004F0A7F86068F0
:10376000E96820F4E060084360602878000715D518
:10377000286960B1B0420AD0B84208D0404506D0AE
:10378000484504D040F2A9310CA004F08FF86068DD
:10379000296920F4605040EAC100606000F09EF8A2
:1037A0006168164AC1F30311515CC84014490860AE
:1037B00014480068FFF7E6FD00209CE72E2E2F44FA
:1037C0007269766572732F53544D3332463178786F
:1037D0005F48414C5F4472697665722F5372632F64
:1037E00073746D3332663178785F68616C5F7263D1
:1037F000632E6300002002400010024086B90008DA
:103800002C0000202400002070B50D46040004D1D7
:1038100040F2215111A004F049F825B940F222519B
:103820000EA004F043F80F2020601A48416801F010
:1038300003016160416801F0F001A160416801F499
:10384000E061E16040684FF4E06101EAD00020618E
:103850001148006800F00700286070BD2E2E2F442C
:103860007269766572732F53544D333246317878CE
:103870005F48414C5F4472697665722F5372632FC3
:1038800073746D3332663178785F68616C5F726330
:10389000632E6300001002400020024004480549E6
:1038A00000684968044AC1F30221515CC84070476E
:1038B0002C0000200010024096B900080448054979
:1038C00000684968044AC1F3C221515CC84070478E
:1038D0002C0000200010024096B900080E4A5168E2
:1038E0000E4801F00C03042B11D0082B0FD10C480B
:1038F000C1F38343C903C05C0AD55168084AC1F3C8
:103900004041921E515C054A5043B0FBF1F07047B4
:1039100004494843704700000010024000127A003A
:1039200076B9000800093D002DE9F84F04007DD06C
:10393000FA4EFB4D20684FF0010A4FF000084FF49B
:10394000803960B1C1070DD1810762D401076ED4FF
:1039500040076DD440F26511F2A003F0A7FF207874
:10396000C00753D060684FF4A02740B1484506D047
:10397000B84204D040F26B11EAA003F097FF6868E8
:10398000C0F38100012807D06868C0F381000228D5
:1039900009D16868C00306D52868800336D56068F9
:1039A0000028C4D032E06068484503D1286840F45C
:1039B000803009E008B1B8420DD0286820F480308A
:1039C0002860286820F480202860606888B1FFF7AC
:1039D000B9FC074609E0286840F480202860E5E744
:1039E000FFF7B0FCC01B642877D828688003F7D5A0
:1039F0000CE0FFF7A7FC074605E000BFFFF7A2FCBD
:103A0000C01B6428F0D828688003F7D4207880078A
:103A10004ED5206930B1012804D040F29F11C1A0D9
:103A200003F044FF60691F2808D902E096E042E0F5
:103A30007BE04FF4D071BBA003F038FF686810F052
:103A40000C0F07D06868C0F38100022809D16868AC
:103A5000C00306D42868800714D5206901287DD1C9
:103A600010E02069B0B1C6F800A0FFF76BFC074674
:103A700005E000BFFFF766FCC01B0228B4D8286829
:103A80008007F7D52868616920F0F80040EAC10096
:103A900028600DE0C6F80080FFF754FC074604E0FC
:103AA000FFF750FCC01B02289ED828688007F7D477
:103AB0002078000736D5A94FA06920B3012806D089
:103AC0004FF4F07197A003F0F1FEA069D8B1C7F8E8
:103AD00000A0FFF737FC074605E054E1FFF732FC92
:103AE000C01B02288ED8686A8007F7D59C484FF41F
:103AF000FA510068B0FBF1F0009000BF0098411E41
:103B00000091FAD20EE0C7F80080FFF71BFC0746D1
:103B100005E000BFFFF716FCC01B0228AED8686A9C
:103B20008007F7D4207840076ED5E068002740B1C1
:103B3000012806D0052804D040F20F2179A003F017
:103B4000B5FEE869C00008D4E86940F08050E8613B
:103B5000E869012700F08050009000E027E18148EB
:103B60000168C90512D4016841F480710160FFF752
:103B7000E9FB834606E000BFFFF7E4FBA0EB0B0088
:103B8000642891D877480068C005F5D5E068012819
:103B90000AD008B1052811D0286A20F00100286257
:103BA000286A20F0040002E0286A40F00100286240
:103BB000E068A8B1FFF7C6FB83460DE0286A40F035
:103BC00004002862F0E700BFFFF7BCFBA0EB0B018D
:103BD00041F28830814285D8286A8007F4D50EE00A
:103BE000FFF7B0FB834607E0FFF7ACFBA0EB0B0150
:103BF00041F28830814291D8286A8007F4D41FB1FD
:103C0000E86920F08050E861E06900287ED0012852
:103C100009D0022807D040F2AD2142A003F046FEB1
:103C2000E069002872D06868C0F381000228E0696A
:103C30006DD0022805D0C6F86080FFF783FB0446EC
:103C4000A4E0206A30B1484504D040F2B62135A046
:103C500003F02CFE606A70B3B0F5802F2BD0B0F566
:103C6000002F28D0B0F5402F25D0B0F5801F22D0EE
:103C7000B0F5A01F1FD0B0F5C01F1CD0B0F5E01FDD
:103C800019D0B0F5001F16D0B0F5101F13D0B0F545
:103C9000201F10D0B0F5301F0DD0B0F5401F0AD056
:103CA000B0F5501F07D0B0F5601F04D040F2B72127
:103CB0001CA003F0FBFDC6F86080FFF743FB07463E
:103CC00005E000BFFFF73EFBC01B02285BD8286859
:103CD0008001F7D4206A48450FD1A06838B1B0F50B
:103CE000003F04D040F2CD210EA003F0DFFD686854
:103CF000A16820F4003008436860D4E90801084353
:103D0000696821F474110843686001E051E041E002
:103D1000C6F860A0FFF716FB04462AE00000424206
:103D2000001002402E2E2F447269766572732F5355
:103D3000544D3332463178785F48414C5F44726964
:103D40007665722F5372632F73746D3332663178D8
:103D5000785F68616C5F7263632E63008004424227
:103D60002C00002000700040FFF7ECFA001B022836
:103D700009D828688001F7D51BE000BFFFF7E2FAF9
:103D8000001B022802D90320BDE8F88F28688001B3
:103D9000F4D40EE00128F7D06868226A00F480317C
:103DA000914204D1616A00F47010884201D0012070
:103DB000EAE70020E8E7000070B504007ED07C4907
:103DC000206888420AD07B49884207D07A498842D5
:103DD00004D04FF4AB7179A003F068FD60684FF434
:103DE000827630B1B04204D040F2571173A003F094
:103DF0005DFDA06850B1B0F5806F07D0B0F5004F01
:103E000004D04FF4AC716DA003F050FDE068B0F544
:103E1000006F05D020B140F2591168A003F046FDB3
:103E2000A069B0F5007F08D038B1B0F5802F04D07C
:103E30004FF4AD7161A003F039FDE06990B108283D
:103E400010D010280ED018280CD020280AD02828EE
:103E500008D0302806D0382804D040F25B1157A093
:103E600003F024FD206A30B1802804D04FF4AE71F5
:103E700052A003F01BFD606A002538B340F25F11C9
:103E80004EA003F013FD606A00B3E06990B108280A
:103E900010D010280ED018280CD020280AD028289E
:103EA00008D0302806D0382804D040F2711143A041
:103EB00003F0FCFC25616561A56200E004E094F874
:103EC0005100002830D034E0012070BD206930B1AD
:103ED000022804D04FF4B17138A003F0E7FC606908
:103EE00030B1012804D040F2631134A003F0DEFCAD
:103EF0006068B04216D1E0690028DDD00828DBD028
:103F00001028D9D01828D7D02028D5D02828D3D009
:103F10003028D1D03828CFD040F2671127A003F045
:103F2000C5FCC9E7E561C7E784F85050204600F0BA
:103F300061F8022084F851002068016821F04001F6
:103F40000160A088218900F4827001F404410843D3
:103F5000A18901F400610843217C01F002010843BA
:103F6000217D01F001010843218B01F40071084318
:103F7000217F01F03801084394F8201001F08001FE
:103F80000843218D01F40051084321680860A069AD
:103F9000042101EA1040216848602068C16921F4C9
:103FA0000061C1616565012084F85100002070BD89
:103FB0000030014000380040003C00402E2E2F44CD
:103FC0007269766572732F53544D33324631787867
:103FD0005F48414C5F4472697665722F5372632F5C
:103FE00073746D3332663178785F68616C5F7370BB
:103FF000692E630030B585B00024009401940294CA
:10400000039400681449884223D11448816941F41B
:1040100080518161816901F480510491816941F08D
:104020000401816180690E4D00F004000490A0201D
:104030000090022001900320039069462846FEF775
:1040400049FF4020CDE90004694628460294FEF766
:1040500041FF05B030BD00000030014000100240BB
:1040600000080140704770472DE9F05F0446006882
:10407000364E374FDFF8DC80DFF8DC90DFF8DCA06D
:104080000D464FF0804BB04214D0B84212D0584584
:1040900010D040450ED048450CD050450AD030498C
:1040A000884207D02F49884204D040F2B4712EA034
:1040B00003F0FCFB286890B1102810D020280ED007
:1040C00030280CD040280AD0502808D0602806D0CC
:1040D000702804D040F2B57123A003F0E7FB6868B4
:1040E000802805D020B140F2B6711FA003F0DEFB9E
:1040F00094F83C00012827D0012284F83C200220BB
:1041000084F83D00216848688B6820F0700C2868AE
:1041100040EA0C0048602068B04209D0B84207D09D
:10412000584505D0404503D0484501D0504504D1FD
:10413000696823F080031943816084F83D200020E2
:1041400084F83C00BDE8F09F0220FBE7002C014012
:10415000003401400004004000080040000C004012
:1041600000100040001400402E2E2F447269766526
:1041700072732F53544D3332463178785F48414C37
:104180005F4472697665722F5372632F73746D3357
:1041900032663178785F68616C5F74696D5F6578ED
:1041A0002E63000010B5040051D03C4920688842BD
:1041B00019D03B49884216D0B0F1804F13D039490D
:1041C000884210D0384988420DD0384988420AD0F8
:1041D0003749884207D03749884204D040F213114A
:1041E00035A003F063FBA06860B110280AD0202836
:1041F00008D0402806D0602804D04FF48A712EA041
:1042000003F054FB206950B1B0F5807F07D0B0F5C2
:10421000007F04D040F2151127A003F047FBE068AF
:104220004FF6FE71401E884204D94FF48B7122A0D4
:1042300003F03CFBA06930B1802804D040F2171194
:104240001DA003F033FB94F83D0010B107E00120FE
:1042500010BD002084F83C00204600F049F8022000
:1042600084F83D00211D206802F090FD012084F8B3
:10427000460084F83E0084F83F0084F8400084F84B
:10428000410084F8420084F8430084F8440084F834
:10429000450084F83D00002010BD0000002C0140C6
:1042A000003401400004004000080040000C0040C1
:1042B00000100040001400402E2E2F4472697665D5
:1042C00072732F53544D3332463178785F48414CE6
:1042D0005F4472697665722F5372632F73746D3306
:1042E00032663178785F68616C5F74696D2E630047
:1042F00008B501682248B1F1804F0BD0214A9142A4
:1043000017D1C16941F00401C161C06900F0040026
:10431000009008BDC16941F00101C161C06900227E
:1043200000F00100009005211C20FFF7C7F81C20B9
:1043300022E0154A91420ED1C16941F01001C161DC
:10434000C069002200F01000009005213620FFF720
:10435000B5F8362010E00D4A9142DAD1C16941F03A
:104360002001C161C069002200F0200000900521F9
:104370003720FFF7A3F83720BDE80840FFF76CB8F7
:1043800000100240000800400010004000140040EF
:104390002DE9F04707460068204C214D214EDFF8FB
:1043A0008880DFF888904FF0804AA04214D0A8425D
:1043B00012D0504510D0B0420ED040450CD04845E8
:1043C0000AD01B49884207D01A49884204D040F2DB
:1043D000951119A003F06AFA97F83D00012802D060
:1043E0000120BDE8F087022087F83D003868A04230
:1043F00009D0A84207D0504505D0B04203D040456F
:1044000001D0484504D1816801F00701062903D095
:10441000016841F0010101600020E2E7002C014049
:10442000003401400004004000080040000C00403F
:1044300000100040001400402E2E2F447269766553
:1044400072732F53544D3332463178785F48414C64
:104450005F4472697665722F5372632F73746D3384
:1044600032663178785F68616C5F74696D2E6300C5
:104470002DE9F04707460068234C244D244EDFF811
:104480009480DFF894904FF0804AA04214D0A84264
:1044900012D0504510D0B0420ED040450CD0484507
:1044A0000AD01E49884207D01D49884204D04FF4E3
:1044B000E8711CA003F0FAF997F83D00012802D03A
:1044C0000120BDE8F087022087F83D003868C16808
:1044D00041F00101C1603868A04209D0A84207D06C
:1044E000504505D0B04203D0404501D0484504D1E5
:1044F000816801F00701062903D0016841F001013C
:1045000001600020DDE70000002C01400034014084
:104510000004004000080040000C00400010004073
:10452000001400402E2E2F447269766572732F534B
:10453000544D3332463178785F48414C5F4472695C
:104540007665722F5372632F73746D3332663178D0
:10455000785F68616C5F74696D2E63002DE9F05FB0
:10456000054690F83C000C464FF0000B01283ED069
:10457000012085F83C00022085F83D0020684FF4BA
:1045800080594FF4005A484515D0702813D0504533
:1045900011D040280FD050280DD060280BD050B13A
:1045A000102808D0202806D0302804D041F2BE417F
:1045B000BDA003F07BF92968886820F0770020F41B
:1045C0007F4088602068C649C64AC74BC74EC84F5F
:1045D0004FF0804C4FF40048502872D00FDC202858
:1045E00004D007DC0028FBD010286BD13CE102206E
:1045F000BDE8F09F3028F9D04028F6D105E16028C9
:104600007DD070285FD0484542D05045EDD1286814
:1046100088420ED090420CD060450AD0984208D013
:10462000B04206D0B84204D041F2E9419EA003F066
:104630003DF9A06858B1484509D0504507D0B0F5BC
:10464000405F04D041F2EC4197A003F02FF960687D
:10465000404509D040B1022806D00A2804D041F2D2
:10466000ED4191A003F022F9E0680F2804D941F24E
:10467000EE418DA003F01AF9D4E90121E36828681E
:1046800002F0CAFB2868816841F48041816002E140
:1046900028688842FBD09042F9D06045F7D0984214
:1046A000F5D0B042F3D0B842F1D092498842EED072
:1046B00091498842EBD041F2CA417BA003F0F6F861
:1046C000E9E042E0E5E0286888420ED090420CD054
:1046D00060450AD0984208D0B04206D0B84204D013
:1046E00041F2D14170A003F0E1F8A06868B14845FB
:1046F0000BD0504509D0B0F5405F06D000E053E044
:1047000041F2D44168A003F0D1F86068404509D077
:1047100040B1022806D00A2804D041F2D54162A057
:1047200003F0C4F8E0680F2804D941F2D6415EA036
:1047300003F0BCF8D4E90121E368286802F06CFBBF
:104740002868816841F07701A0E7286888420ED088
:1047500090420CD060450AD0984208D0B04206D0B2
:10476000B84204D041F2FD414FA003F09FF86068C9
:10477000404509D040B1022806D00A2804D04FF4A1
:10478000A85149A003F092F8E0680F2804D941F23B
:10479000015145A003F08AF8E2686168286802F0D8
:1047A0004DFB502128682DE0286888420ED09042A9
:1047B0000CD060450AD0984208D0B04206D0B8422A
:1047C00004D041F20D5138A003F070F86068404504
:1047D00009D040B1022806D00A2804D041F2105175
:1047E00031A003F063F8E0680F2804D941F21151B9
:1047F0002DA003F05BF8E2686168286802F02FFBE7
:104800006021286802F012FB45E0286888420ED03B
:1048100090420CD060450AD0984208D0B04206D0F1
:10482000B84204D041F21D511FA003F03FF8606868
:10483000404509D040B1022806D00A2804D04FF4E0
:10484000A95119A003F032F8E0680F2804D941F209
:10485000215115A003F02AF8E2686168286802F087
:10486000EDFA40212868CDE7286888420ED09042B2
:104870000CD060450AD0984208D0B04206D0B84269
:1048800004D041F2305108A003F010F821682868E4
:10489000B8E74FF0010B012085F83D00002085F8B6
:1048A0003C005846A4E600002E2E2F44726976651F
:1048B00072732F53544D3332463178785F48414CF0
:1048C0005F4472697665722F5372632F73746D3310
:1048D00032663178785F68616C5F74696D2E630051
:1048E000002C01400034014000040040000800405A
:1048F000000C00400010004000140040704770B5EC
:104900000446006801694FF00005C943890715D4C2
:10491000C168C943890711D4E91E016101202077CC
:10492000206880698007204602D0FFF7E7FF04E097
:1049300000F098F8204600F096F825772068016985
:10494000C943490717D4C168C943490713D46FF055
:1049500004010161022020772068806910F4407F03
:10496000204602D0FFF7CAFF04E000F07BF82046A3
:1049700000F079F8257720680169C943090716D442
:10498000C168C943090712D46FF00801016104200E
:1049900020772068C0698007204602D0FFF7AEFF6D
:1049A00004E000F05FF8204600F05DF8257720680D
:1049B0000169C943C90617D4C168C943C90613D4DC
:1049C0006FF010010161082020772068C06910F4A1
:1049D000407F204602D0FFF791FF04E000F042F84C
:1049E000204600F040F8257720680169C943C907CF
:1049F00008D1C168C943C90704D1891E0161204695
:104A000000F032F820680169C943090609D4C16879
:104A1000C943090605D46FF0800101612046FFF704
:104A200021FB20680169C943490609D4C168C9430B
:104A3000490605D46FF040010161204600F024F8DA
:104A400020680169C94389060BD4C168C943890636
:104A500007D46FF0200101612046BDE87040FFF7E8
:104A600002BB70BD7047704710B504460068054929
:104A7000884201D1FEF76CFC2046BDE8104002F0F0
:104A800067BC0000002C01407047704710B5044619
:104A90000068406994F84110C0F3C010212911D179
:104AA00080B12068143050E8001F21F0800140E8F8
:104AB0000012002AF5D1A06B08B1FDF7EDFE2046EB
:104AC00002F085FA2068406994F84210C0F3801023
:104AD000222911D180B12068143050E8001F21F044
:104AE000400140E80012002AF5D1E06B08B1FDF763
:104AF000D3FE204602F044FA002010BD70470000AB
:104B0000F8B5016804460868CA684B6910F00F0FD1
:104B10004FF0000559D003F0010602F490773743B7
:104B200065D0C10705D0D10503D5616C41F0010105
:104B30006164410705D5D90703D0616C41F00201DA
:104B40006164810705D5D90703D0616C41F0040188
:104B50006164010707D502F02001314303D0616C85
:104B600041F008016164616C00293AD0800604D5E7
:104B7000900602D5204602F038FA20684069616C40
:104B8000C0F38010090700D460B3204602F0F8F9A2
:104B900020684069400621D52068143050E8001F85
:104BA00021F0400140E80012002AF5D1E06BA8B1E5
:104BB0006D494163E06BFDF793FE002811D0E06B77
:104BC000416B01B0BDE8F040084783060FD593065E
:104BD0000DD52046BDE8F84002F007BA2046FFF7A1
:104BE0008DFFF8BD2046FFF789FF6564F8BD266B91
:104BF0002023012E7CD1C6067AD5D60678D5086842
:104C00004868009048694FF00206400640D5E16BC5
:104C1000086840680004000CE8D0A28D8242E5D903
:104C2000E085886920282DD020680C3050E8001FCE
:104C300021F4807140E80012002AF5D12068143078
:104C400050E8001F21F0010140E80012002AF5D1D0
:104C50002068143050E8001F21F0400140E80012A5
:104C6000002AF5D184F84230256320680C3050E8E2
:104C7000001F21F0100140E80012002AF5D1E06B7E
:104C8000FDF70AFE6663A08DE18D401A81B22AE02D
:104C9000A08DE18D401A81B2E08D0028A6D00029B8
:104CA000A4D022680C3252E8000F20F4907042E841
:104CB0000007002FF5D12068143050E8002F22F0B3
:104CC000010240E80027002FF5D184F84230256327
:104CD00020680C3050E8002F22F0100240E800233A
:104CE000002BF5D166632046FFF7CFFEF8BDFFE746
:104CF00005062BD5150629D594F841002128F5D1B4
:104D0000A068B0F5805F01D12069B0B1206A411C74
:104D10002162216800784860E08C401E0004000C8D
:104D2000E084E3D12068C16821F08001C16020687F
:104D3000C16841F04001C160D8E7206A0088C0F333
:104D400008004860206A801C2062E5E74006CDD557
:104D50005006CBD5CA68204622F04002CA6084F8CB
:104D6000413000F04EF9C1E7836E000870B50400D1
:104D700020D0A06934490028344A354B20681BD024
:104D800088420AD0904208D0984206D04FF4B771BA
:104D900030A002F08BFDA069F8B1A069B0F5807F6A
:104DA0001BD0B0F5007F18D0B0F5407F15D040F291
:104DB0006F110FE0012070BD88420ED090420CD0E0
:104DC00098420AD03249884207D03249884204D0FA
:104DD00040F273111FA002F069FDA06838B1B0F570
:104DE000805F04D040F275111AA002F05FFD94F8C4
:104DF0004100002520B984F84050204600F04CF8CE
:104E0000242084F841002068C16821F40051C16069
:104E1000204602F04BF92068016921F490410161BC
:104E20002068416921F02A0141612068C16841F48C
:104E30000051C1606564202084F8410084F842007C
:104E40006563002070BD0000003801400044004050
:104E5000004800402E2E2F447269766572732F53DE
:104E6000544D3332463178785F48414C5F44726923
:104E70007665722F5372632F73746D333266317897
:104E8000785F68616C5F756172742E63000000006A
:104E9000004C00400050004070B586B0002506462A
:104EA00000950195029503950068224988423ED1FC
:104EB0002149886940F480408861886900F4804015
:104EC0000490886940F00400886188691B4C00F0F8
:104ED00004000490481500900220019003200390E4
:104EE00069462046FDF7F6FF2015CDE90005694625
:104EF00020460295FDF7EEFF124C1148C4E900056B
:104F00008020C4E9025025616561A5612046E56104
:104F1000FDF7A2FE08B1FDF7A7F9F4630022052111
:104F200025206662FEF7CAFA2520FEF795FA06B03C
:104F300070BD000000380140001002400008014030
:104F4000580002402803002090F84230202B01D066
:104F50000220704721B11AB10023036302F04CB95B
:104F600001207047704770472DE9F843044690F8D8
:104F700041001F4616460D46202802D00220BDE8FB
:104F8000F8837DB176B100206064212084F841006F
:104F9000FEF7D8F9A6848046E684A068B0F5805F65
:104FA00002D003E00120EAE7206910B12E46002577
:104FB0000EE000260CE08021204602F065F9A0B941
:104FC000AEB116F8010B21684860E08C401EE08409
:104FD000E08C43464FF0000200970028EBD14FF0E1
:104FE0004001204602F050F930B10320C7E735F800
:104FF000020BC0F30800E6E7202084F841000020FF
:10500000BDE77047FEE70000034910B14FF4802070
:1050100000E00420086070471014014070B51C4681
:10502000154600F049F9044905FB04F04989BDE83B
:10503000704000F069B80000D000002001B5009871
:1050400001E0401E00900028FBD108BD2DE9F0478B
:10505000184C203A1FFA82FCE768BA88FB8802FBEA
:1050600003F5EE1705EB5675C5F3C7063D680CFB57
:10507000065700F021F92C2000F018FC00254FF015
:105080008008A14612E00024795D28FA04F001426C
:1050900002D0B9F8080001E0B9F80A0000F018FCE5
:1050A000641CE4B2082CEFD36D1CEDB2B542EAD318
:1050B000BDE8F087D00000202DE9F0410F460646FC
:1050C0000025104C19E0E0686388818829449942E2
:1050D00003D9C188002531448EB2C088A1883044EC
:1050E000884201D900252E4631462846FFF7AEFFFB
:1050F000E0687F1C8088284485B23A78002AE2D193
:10510000BDE8F081D000002070B505460E460024B1
:105110002C2000F0CBFB03E0304600F0D9FB641CF0
:10512000AC42F9D370BD00002B4810B5816986B040
:1051300041F010018161816901F0100104918169E0
:1051400041F020018161816901F0200104918169B0
:1051500041F008018161816901F0080104918169D0
:1051600041F001018161806900F0010004901B4859
:10517000416821F0E06141F000714160012001903F
:105180000290032003904FF6FF7000906946144888
:10519000FDF7A0FE2020134C009069462046FDF745
:1051A00099FE4020009069462046FDF793FE1020AE
:1051B000009069462046FDF78DFE802000906946EC
:1051C0002046FDF787FE0420009069460648FDF75B
:1051D00081FE06B010BD000000100240000001403A
:1051E000000C0140001001400014014070B505465C
:1051F00007284DD8274CEA074FF0F00025704FF4F0
:10520000A07112D06180A080362000F04FFBE088B2
:10521000A0F51341413904D0A0F50541523907D01A
:1052200009E0082040EA451003E06080A180EBE738
:10523000680100F04DFB2A2000F038FB002000F050
:1052400047FB002000F044FB6088401EC0F30720AD
:1052500000F03EFBA078401EC0B200F039FB2B20CE
:1052600000F024FB002000F033FB002000F030FBB6
:10527000A088401EC0F3072000F02AFB2079401EC2
:10528000C0B200F025FBBDE870402C2000F00EBB42
:1052900070BD0000D000002010B5FFF745FF0120D1
:1052A000FFF7B2FE00F034F802480078BDE8104085
:1052B000FFF79CBFD00000202DE9F04105461E46B7
:1052C00017460C462A2000F0F1FA280A00F000FBED
:1052D000E8B200F0FDFA3D446D1EC5F30F2000F06A
:1052E000F7FAE8B200F0F4FA2B2000F0DFFA200A17
:1052F00000F0EEFAE0B200F0EBFA3444641EC4F3BE
:105300000F2000F0E5FAE0B2BDE8F04100F0E0BAAD
:1053100070B500F07BFAFE49FE4D4FF6FF74C88071
:10532000A0F5134141397DD0A0F5054152397AD11C
:105330002046FFF783FECF2000F0B8FA002000F0EF
:10534000C7FAC12000F0C4FA302000F0C1FA2046AC
:10535000FFF774FEED2000F0A9FA642000F0B8FA1F
:10536000032000F0B5FA122000F0B2FA812000F01C
:10537000AFFA2046FFF762FEE82000F097FA85209A
:1053800000F0A6FA102000F0A3FA782000F0A0FAAE
:105390002046FFF753FECB2000F088FA392000F0BA
:1053A00097FA2C2000F094FA002000F091FA3420B3
:1053B00000F08EFA022000F08BFA2046FFF73EFE46
:1053C000F72000F073FA202000F082FA2046FFF761
:1053D00035FEEA2000F06AFA002000F079FA002099
:1053E00000F076FA2046FFF729FEC02000F05EFAB2
:1053F000212000F06DFA2046FFF720FEC12000F0CA
:1054000055FA112000F064FAC52000F04FFA2D2063
:1054100000F05EFA332000F05BFA2046FFF70EFE44
:10542000362001E0A9E0F0E100F040FA002000F0B1
:105430004FFA2046FFF702FE3A2000F037FA5520D7
:1054400000F046FA2046FFF7F9FDB12000F02EFAF1
:10545000002000F03DFA172000F03AFA2046FFF74E
:10546000EDFDB62000F022FA0A2000F031FAA22069
:1054700000F02EFAF62000F019FA012000F028FAC8
:10548000302000F025FAF22000F010FA002000F0A1
:105490001FFA262000F00AFA012000F019FA20462F
:1054A000FFF7CCFDE02000F001FAD02000F010FA68
:1054B000002000F00DFA022000F00AFA072000F0A8
:1054C00007FA0B2000F004FA1A2000F001FA31204C
:1054D00000F0FEF9542000F0FBF9402000F0F8F94C
:1054E000292000F0F5F9122000F0F2F9122000F066
:1054F000EFF9122000F0ECF9172000F0E9F9E120B3
:1055000000F0D4F9D02000F0E3F9002000F0E0F939
:10551000022000F0DDF9072000F0DAF9052000F0A4
:10552000D7F9252000F0D4F92D2000F0D1F944203E
:1055300000F0CEF9452000F0CBF91C2000F0C8F9AE
:10554000182000F0C5F9162000F0C2F91C2000F068
:10555000BFF91D2000F0BCF9112000F0A7F9284682
:10556000FFF76CFD2046FFF769FD292000F09EF94A
:105570002C20BDE8704000F099B92046FFF75EFD91
:10558000CF2000F093F9002000F0A2F9812000F074
:105590009FF9302000F09CF92046FFF74FFDED20E9
:1055A00000F084F9642000F093F9032000F090F9F2
:1055B000122000F08DF9812000F08AF92046FFF7D3
:1055C0003DFDE82000F072F9852000F081F91020FF
:1055D00000F07EF9782000F07BF92046FFF72EFDE1
:1055E000CB2000F063F9392000F072F92C2000F094
:1055F0006FF9002000F06CF9342000F069F9062002
:1056000000F066F92046FFF719FDF72000F04EF98B
:10561000202000F05DF92046FFF710FDEA2000F0A1
:1056200045F9002000F054F9002000F051F920461F
:10563000FFF704FDB12000F039F9002000F048F92F
:105640001B2000F045F92046FFF7F8FCB62000F0DB
:105650002DF90A2000F03CF9A22000F039F920468B
:10566000FFF7ECFCC02000F021F9352000F030F904
:105670002046FFF7E3FCC12000F018F9112000F0EC
:1056800027F9C52000F012F9452000F021F9452046
:1056900000F01EF9C72000F009F9A22000F018F967
:1056A000F22000F003F9002000F012F9262000F0AB
:1056B000FDF8012000F00CF92046FFF7BFFCE020C8
:1056C00000F0F4F80F2000F003F9262000F000F9B4
:1056D000242000F0FDF80B2000F0FAF80E2000F076
:1056E000F7F8092000F0F4F8542000F0F1F8A820B1
:1056F00000F0EEF8462000F0EBF80C2000F0E8F89F
:10570000172000F0E5F8092000F0E2F80F2003E090
:10571000D0000020FCBF020000F0DAF8072000F003
:10572000D7F8002000F0D4F8E12000F0BFF8002006
:1057300000F0CEF8192000F0CBF81B2000F0C8F8DC
:10574000042000F0C5F8102000F0C2F8072000F097
:10575000BFF82A2000F0BCF8472000F0B9F8392043
:1057600000F0B6F8032000F0B3F8062000F0B0F81F
:10577000062000F0ADF8302000F0AAF8382000F044
:10578000A7F80F2000F0A4F82046FFF757FC3620BA
:1057900000F08CF8C82000F09BF82046FFF74EFC84
:1057A0002A2000F083F8002000F092F8002000F09A
:1057B0008FF8002000F08CF8EF2000F089F82046E8
:1057C000FFF73CFC2B2000F071F8002000F080F87F
:1057D000002000F07DF8012000F07AF83F2000F072
:1057E00077F82046FFF72AFC3A2000F05FF85520B2
:1057F00000F06EF8112000F059F82846FFF71EFC63
:105800002046FFF71BFC2920B3E670BD70B50420CD
:1058100000F04CF800F024F800F022F800F020F836
:105820004FF6FF7404EA002500F01AF82843A0F5AB
:105830000541523912D0D32000F038F800F010F8AA
:1058400000F00EF800F00CF804EA002400F008F86C
:105850002043A0F51341413900D0002070BD000065
:1058600070B5104A4FF088301060131D18600D4C51
:1058700000200C3420600C49802008614020086121
:1058800010254D6120264E61181D00680E6180B202
:105890000D614FF03331116019604FF6FF712160D7
:1058A00070BD0000000C01400010014006491022AC
:1058B0004A6180234B6120230B61044B1860402018
:1058C000486108610A617047001001400C0C0140FA
:1058D000064910224A6180230B6120230B61044B8F
:1058E00018604020486108610A617047001001405B
:1058F0000C0C014008B50B4D0B4E4FF0FF340094DB
:10590000002301220321686805F088F9012806D0E8
:105910000228F4D108213046FDF7AEFCEFE7042160
:10592000F9E70000C8000020001001401F4D204F83
:10593000204C6E1401212846FDF772FC50B92078E6
:10594000C00707D10121606805F022F9207840F0F6
:105950000100207031463846FDF762FC50B92078CE
:10596000800707D40221606805F012F9207840F022
:105970000200207001212846FDF752FC012805D1C4
:105980002078C10702D020F001002070314638464F
:10599000FDF746FC012805D12078810702D520F0CB
:1059A00002002070142004F07FFDC3E700080140CE
:1059B00000100140C80000200148C0687047000086
:1059C000D000002010B50020FFF710FCFFF764FCAA
:1059D000114800F039F84FF6FF7421461F2000F0FF
:1059E0002DF80E48002103880D4802880846FFF76D
:1059F00015FBFFF7E1FFC0880AA104EA4000FFF7AA
:105A00005BFBFFF7D9FFC088BDE8104000EB40000A
:105A100080B207A1FFF750BBE0000020D4000020B7
:105A2000D200002048656C6C6F20576F726C640068
:105A30005468616E6B7320796F750000014A1081A4
:105A400051817047D00000200149C86070470000B4
:105A5000D0000020192004F027FDFBE74FF47A74F2
:105A6000204604F021FDFBE71CB500240C490094FE
:105A70000A48019408600846FCF75AFD08B1FCF793
:105A8000F3FB2C20CDE90004002269460448FCF712
:105A9000A9FC002801D0FCF7E7FB1CBD0074004006
:105AA00010010020114808B5416941F00101416130
:105AB000416901F001010091416941F00201416138
:105AC0004069002200F00200009005210F20FDF740
:105AD000F5FC0F20FDF7C0FC002205213A20FDF760
