:020000040800F2
:10000000F0060020CD01000873120008BD110008A1
:1000100071120008D3020008051300080000000058
:100020000000000000000000000000008512000831
:10003000E1020008000000007512000887120008A5
:10004000E7010008E7010008E7010008E7010008F0
:10005000E7010008E7010008E7010008E7010008E0
:10006000E7010008E7010008E7010008E7010008D0
:10007000E7010008E7010008D5020008E7010008D1
:10008000E7010008E7010008E7010008E7010008B0
:10009000E7010008E7010008E7010008E7010008A0
:1000A000E7010008E7010008E7010008E701000890
:1000B000E7010008E7010008E7010008E701000880
:1000C000E7010008E7010008E7010008E701000870
:1000D00079120008E7010008E7010008E7010008BD
:1000E000E7010008E7010008E7010008E701000850
:1000F000E7010008E7010008E7010008E701000840
:10010000E7010008E7010008E7010008E70100082F
:10011000E7010008E7010008E7010008E70100081F
:10012000E7010008E7010008E7010008E70100080F
:1001300000F002F800F03AF80AA090E8000C8244BF
:100140008344AAF10107DA4501D100F02FF8AFF29C
:10015000090EBAE80F0013F0010F18BFFB1A43F0A5
:10016000010318471412000034120000103A24BF93
:1001700078C878C1FAD8520724BF30C830C144BF0C
:1001800004680C607047000000230024002500264E
:10019000103A28BF78C1FBD8520728BF30C148BFEA
:1001A0000B6070471FB51FBD10B510BD00F058F8AB
:1001B0001146FFF7F7FF01F0B6F800F076F803B448
:1001C000FFF7F2FF03BC00F07DF80000094880470C
:1001D00009480047FEE7FEE7FEE7FEE7FEE7FEE729
:1001E000FEE7FEE7FEE7FEE704480549054A064B41
:1001F000704700000313000831010008F0000020E0
:10020000F0060020F0020020F00200204FF0000273
:1002100000B5134694469646203922BFA0E80C50FC
:10022000A0E80C50B1F12001BFF4F7AF090728BFD7
:10023000A0E80C5048BF0CC05DF804EB890028BF53
:1002400040F8042B08BF704748BF20F8022B11F07C
:10025000804F18BF00F8012B7047704770477047F8
:10026000754600F02BF8AE4605006946534620F06F
:100270000700854618B020B5FFF7B6FFBDE820405F
:100280004FF000064FF000074FF000084FF0000B52
:1002900021F00701AC46ACE8C009ACE8C009ACE805
:1002A000C009ACE8C0098D46704710B50446AFF3ED
:1002B00000802046BDE81040FFF781BF004870472E
:1002C0009000002001491820ABBEFEE72600020086
:1002D0007047FEE7014800F007B800004C0000201E
:1002E000704772B6FEE700002DE9F05FC16B0A6847
:1002F00001680B68046C4FF0040808FA04F8844D98
:10030000844E854FDFF814C2DFF81492DFF814A290
:10031000DFF814B2DFF814E218EA020F65D05FEAE2
:10032000437862D50A68920603D40A6822F0040270
:100330000A60DFF8F0814FF48062016808F1140868
:1003400013011402414524D9A9420DD0B1420FD066
:10035000B9421AD0614515D0494515D0514501D152
:10036000120312E0594501D104220EE0714501D17A
:1003700040220AE06D4D1435A94206D06B4A28325E
:10038000914201D11A4600E022466749091F0A60DE
:1003900029E0A94213D0B14215D0B94220D061451D
:1003A0001BD049451BD0514502D14FF4800217E0C4
:1003B000414502D14FF0806212E0594501D104223B
:1003C0000EE0714501D140220AE0584D1435A94292
:1003D00006D0564A2832914201D11A4600E0224600
:1003E0004B4908394A60C16A71E04FF0020808FAC7
:1003F00004F818EA020F70D05FEA83786DD50A68B6
:10040000920606D40A6822F00A020A60012180F8E6
:100410002110DFF810814FF40072016808F1140810
:1004200013011402414524D9A9420DD0B1420FD085
:10043000B9421AD0614515D0494515D0514501D171
:10044000120312E0594501D102220EE0714501D19B
:1004500020220AE0354D1435A94206D0334A28320D
:10046000914201D11A4600E022462F49091F0A6035
:1004700029E0A94213D0B14215D0B94220D061453C
:100480001BD049451BD0514502D14FF4001217E053
:10049000414502D14FF0007212E0594501D10222CC
:1004A0000EE0714501D120220AE0204D1435A94209
:1004B00006D01E4A2832914201D11A4600E0224657
:1004C000134908394A60002180F82010816A002908
:1004D0001CD0BDE8F05F0847FFE70825A54015429E
:1004E00014D01A0712D50A6822F00E020A6090F89A
:1004F0004020C36B012101FA02F25A60816380F847
:100500002110002180F82010016BE0E7BDE8F09F8A
:10051000080002401C00024030000240440002403B
:10052000580002406C000240080402401C040240D3
:1005300030B560B11A4B026814219A4209D2194BA6
:100540001344B3FBF1F18900016417490AE001206B
:1005500030BD134B5B421344B3FBF1F189000164DE
:100560000F490839C163022180F82110136843F64E
:10057000F0718B43F0E901142143D0E902452C438B
:100580002143046921434469214384692143194378
:10059000116000214163012242770177084630BD96
:1005A00008040240F8FFFDBF000002402DE9F84FAB
:1005B000DFF8C8910024A9F1040B23460F2709F1A5
:1005C000040AABF1040ED1E00125A54006EA0502BC
:1005D000AA4276D1DFF8A8C14E68A6EB0C086645A2
:1005E0002BD00DDC032E34D005DC36B3012E19D010
:1005F000022E2FD11BE0112E16D0122E2AD119E077
:10060000B8F5881F19D006DCB8F5803F15D0B8F5CD
:10061000801F1FD111E0B8F5001F0ED0B8F5041FE0
:1006200018D10AE0CB6815E0CB681B1D12E0CB683F
:1006300008330FE0CB680C330CE08B682BB1012B37
:100640004FF0080303D0456104E0042302E0056194
:1006500000E00023FF2A01D8064601E000F104066D
:100660004FEA840501D9A5F12005D6F8008007FAE4
:1006700005FC28EA0C0803FA05F548EA0508C6F85F
:1006800000804D68ED0070D53E4DAE6946F0010624
:10069000AE61AD6924F0030605F0010500953A4D01
:1006A00006EB050CDCF80850A607360F07FA06F82B
:1006B00025EA0805DFF8D480404503D14FF0000853
:1006C00025E052E0DFF8C880404502D14FF0010834
:1006D0001DE0DFF8C080404502D14FF0020816E06F
:1006E000DFF8B480404502D14FF003080FE0DFF897
:1006F000AC80404502D14FF0040808E0DFF8A0804C
:10070000404502D14FF0050801E04FF0060808FA15
:1007100006F848EA0508CCF808804D68D9F800606A
:10072000ED024D4601D5164300E096432E604D681C
:10073000DAF80060AD02554601D5164300E0964355
:100740002E604D68DBF80060AD035D4601D51643B1
:1007500000E096432E604D68DEF80060ED037546BC
:1007600001D5164300E096432E60641C0A681646C5
:10077000E2407FF429AFBDE8F88F00000804014093
:10078000000011100010024000000140000801406C
:10079000000C01400010014000140140001801400D
:1007A000001C0140014880687047000000000020E4
:1007B000704770B501684B688A684FF00104D243F6
:1007C00055061AD5D50718D1DD436D0615D4C9686D
:1007D000426A1180416A891C4162418D491E4185EE
:1007E000418D002908D101684A6822F060024A6000
:1007F00080F8354000F006F970BD950718D4DD4348
:100800002D0615D4C2691288CA60C169891CC161EC
:10081000418C491E4184418C0029EDD101684A6810
:1008200022F0A0024A6080F8354000F0ECF870BD7C
:10083000DB439B06FBD4530607D44B6823F06003CD
:100840004B60816B41F002018163110708D401689C
:100850004A6822F0A0024A60816B41F00401816382
:1008600080F83540FFF7A4FF70BD00002DE9F0418E
:10087000040004D094F83500002618B107E00120E8
:10088000BDE8F08184F83460204600F06BF8022067
:1008900084F835002168CA6940F6BF77BA43CA6157
:1008A00021680862606902283CD0E06850B12025C8
:1008B000A068202800D86D0028492068884203D10C
:1008C000042005E01025F3E72549884203D10820DC
:1008D00000F032F901E000F0A7FA2169B1F5007FDC
:1008E00002D0B0FBF5F006E0E16809B1A90000E034
:1008F000E900B0FBF1F000EB800061694000B0FB63
:10090000F1F0401D0A21B0FBF1F000F00101401AA6
:1009100040080902821EFE2A06D3A06B40F0100098
:10092000A063ACE70220002122690843024320684B
:100930000262D4E901010843A269E1681143084356
:100940002168CA69BA43104340F40060C861A663D5
:10095000012084F83500002092E7000000380040B4
:10096000003C004070B586B0002605460096019612
:100970000296039600681E49884236D11D49C8690F
:1009800040F48040C861C86900F4804004908869E0
:1009900040F0080088618869694600F0080004900A
:1009A0004FF4304000901448FFF700FE144C1348F9
:1009B000C4E900068020C4E9026040002061800094
:1009C00060612020A0610002E0612046FFF7B0FDD9
:1009D00008B1FFF786FC2C630022114624206562D3
:1009E00000F078F8242000F067F806B070BD000031
:1009F0000038004000100240000C0140440002405A
:100A00004C0000207047704702488168027811440A
:100A10008160704700000020074810B5016841F070
:100A200010010160032000F075F80F2000F006F8B7
:100A300000F024F8002010BD0020024070B50D4DDC
:100A400004464FF47A712878B1FBF0F00A4909683E
:100A5000B1FBF0F000F09EFB48B9102C07D2002249
:100A60002146501E00F036F800206C6070BD012059
:100A700070BD0000000000200C0000200C4808B5EC
:100A8000816941F001018161816901F001010091F9
:100A9000C16941F08051C161C06900F0805000908F
:100AA0000448416821F0E06141F00071416008BDF7
:100AB0000010024000000140002809DB00F01F0286
:100AC000012191404009800000F1E020C0F80011B0
:100AD00070470000F0B40E4B1B680C46C3F30223B2
:100AE000C3F10705042D00D90425191D072901D2DA
:100AF000002300E0DB1E012606FA05F1491E214015
:100B000099409E40761E16403143F0BC00F0FBBB7E
:100B10000CED00E0064900F0070208684FF6FF03FD
:100B2000184040EA0220034A104308607047000062
:100B30000CED00E00000FA0510B501460020284C3D
:100B400004292FD00BDC012930D0022929D100F053
:100B50005BF96168C1F38131491C49001FE0082934
:100B600020D010291DD161682268D20119D51D48F5
:100B7000C1F38342C903805C0AD56168194AC1F395
:100B80004041921E515C184AB2FBF1F1484301E02A
:100B9000164948436168490203D440000321B0FB71
:100BA000F1F010BDBDE8104000F03EB9226AC2F37A
:100BB0000121012903D1920701D5C80310BD0229E3
:100BC00005D1626A920702D549F6404010BD03295B
:100BD000FCD121688903F9D54FF2244010BD0000F3
:100BE000001002405013000800127A0000093D0076
:100BF0002DE9F84305460078354CC00754D0E0692C
:100C00000026C00008D4E06940F08050E061E0694F
:100C1000012600F0805000902E480168C90512D4CA
:100C20000168804641F480710160FFF7BBFD074613
:100C300005E000BFFFF7B6FDC01B642823D8D8F835
:100C40000000C005F6D5206A10F4407021D0A988B4
:100C500001F4407181421CD0206A1F49012220F416
:100C600040700A6000220A602062C00711D0FFF7BE
:100C700099FD074641F2883808E000BFFFF792FD72
:100C8000C11B414502D90320BDE8F883206A8007D3
:100C9000F4D5206A696820F44070084320621EB1D0
:100CA000E06920F08050E0612878800705D5606811
:100CB000A96820F44040084360602878C00605D544
:100CC0006068696920F48000084360600020DBE709
:100CD0000010024000700040400442422DE9F047FD
:100CE0000F46050061D0434E306800F00700B8425F
:100CF00009D2306820F0070038433060306800F0D7
:100D00000700B84251D128683B4C810712D54007F3
:100D100003D5606840F4E06060602878000703D580
:100D2000606840F4605060606068A96820F0F0007E
:100D3000084360602878C00728D06868012810D070
:100D40002168022810D0890700292EDA616821F075
:100D5000030101436160FFF725FD804641F28839B8
:100D60000DE021688903EFE78901EDE7FFF71AFD40
:100D7000A0EB0801494502D90320BDE8F08760686F
:100D8000696800F00C00B0EB810FEFD1306800F023
:100D90000700B8420BD9306820F0070038433060B4
:100DA000306800F00700B84201D00120E5E728785C
:100DB000400705D56068E96820F4E060084360609A
:100DC0002878000706D56068296920F4605040EA59
:100DD000C100606000F028F86168084AC1F303119F
:100DE000515CC8400649086006480068FFF726FEC7
:100DF0000020C2E7002002400010024060130008FB
:100E00000C000020040000200448054900684968DF
:100E1000044AC1F3C221515CC84070470C00002055
:100E200000100240701300080E4A51680E4801F08D
:100E30000C03042B11D0082B0FD10C48C1F38343B2
:100E4000C903C05C0AD55168084AC1F34041921EEB
:100E5000515C054A5043B0FBF1F0704704494843E8
:100E6000704700000010024000127A003E13000894
:100E700000093D002DE9F84F040070D02078C04DE6
:100E8000C00749D06868C0F38100012807D06868AE
:100E9000C0F38100022809D16868C00306D528681C
:100EA000800339D560680028E7D035E06068B0F588
:100EB000803F0BD010B1B0F5A02F11D0286820F4DE
:100EC00080302860286820F4802002E0286840F400
:100ED00080302860606890B1FFF764FC06460AE045
:100EE000286840F480202860F0E700BFFFF75AFC34
:100EF000801B642873D828688003F7D50CE0FFF7BF
:100F000051FC064605E000BFFFF74CFC801B64283F
:100F1000F0D828688003F7D420789A4E80074FF0E5
:100F200001094FF0000839D5686810F00C0F07D0A0
:100F30006868C0F38100022809D16868C00306D43C
:100F40002868800714D52069012808D110E020699D
:100F5000B0B1C6F80090FFF725FC074605E00AE1AE
:100F6000FFF720FCC01B0228C4D828688007F7D5EB
:100F70002868616920F0F80040EAC10028600DE0AF
:100F8000C6F80080FFF70EFC074604E0FFF70AFCF6
:100F9000C01B022823D828688007F7D420780007D0
:100FA0002CD57948A169D9B1C0F80090FFF7FAFBB8
:100FB000074604E0FFF7F6FBC01B02280FD8686A5B
:100FC0008007F7D571484FF4FA510068B0FBF1F093
:100FD000009000BF0098411E0091FAD20EE080E020
:100FE000C0F80080FFF7DEFB074604E0FFF7DAFBFE
:100FF000C01B022875D8686A8007F7D4207840079C
:1010000060D5E8690027C00008D4E86940F0805046
:10101000E861E869012700F0805000905C480168B1
:10102000C90513D40168834641F480710160FFF75C
:10103000B9FB824606E000BFFFF7B4FBA0EB0A0055
:1010400064284ED8DBF80000C005F5D5E06801281B
:101050000AD008B1052813D0286A20F001002862C0
:10106000286A20F0040002E0286A40F001002862AB
:10107000E06841F2883B98B1FFF794FB82460BE0B1
:10108000286A40F004002862EEE700BFFFF78AFB01
:10109000A0EB0A0159455AD8286A8007F6D50CE01A
:1010A000FFF780FB824605E0FFF77CFBA0EB0A011F
:1010B00059454CD8286A8007F6D41FB1E86920F05A
:1010C0008050E861E06988B36968C1F38101022951
:1010D00044D00228C6F8608004D0FFF763FB0446C2
:1010E00038E034E0FFF75EFB074604E0FFF75AFB09
:1010F000C01B02282BD828688001F7D4206AB0F5DD
:10110000803F05D16868A16820F40030084368601A
:10111000D4E908010843696821F474110843686040
:10112000C6F86090FFF73EFB044606E025E000BFEE
:10113000FFF738FB001B022809D828688001F7D583
:101140001BE000BFFFF72EFB001B022802D9032083
:10115000BDE8F88F28688001F4D40EE00128F7D0AC
:101160006868226A00F48031914204D1616A00F417
:101170007010884201D00120EAE70020E8E7000073
:101180000010024000004242800442420C00002055
:101190000070004010B5401EB0F1807F01D30120E7
:1011A00010BD4FF0E02460610F21601700F0ABF834
:1011B0000020A06107202061002010BDFEE7000094
:1011C000094808B5416941F00101416140690022C7
:1011D00000F00100009011460E20FFF77BFCBDE8F7
:1011E00008400E20FFF768BC00100240114808B507
:1011F000816941F010018161816901F01001009164
:10120000816941F020018161816901F02001009133
:10121000816941F008018161816901F00801009153
:10122000816941F004018161806900F0040000904F
:1012300008BD0000001002400C4810B50A490160CA
:1012400089154160002181604AF64442C160C0E9CD
:1012500004128161FFF70AFB002803D0BDE81040AB
:10126000FFF73FB810BD000000380040100000201C
:10127000FEE7FEE7704700000148FFF79ABA00005A
:10128000100000207047FFF7BFBB30B595B0282194
:101290006846FEF7BBFF14210AA8FEF7B7FF182126
:1012A0000FA8FEF7B3FF01210804CDE900100024C8
:1012B000029402250491CDE907504FF4E010099003
:1012C0006846FFF7D7FD08B172B6FEE70F20CDE9FB
:1012D0000A054FF48060CDE90C4002210AA80E9463
:1012E000FFF7FCFC08B172B6FEE704200F901294E1
:1012F0000FA8FFF77DFC002801D072B6FEE715B0FD
:1013000030BD7047FEE70907090E002804DB00F135
:10131000E02080F80014704700F00F0000F1E0209A
:1013200080F8141D7047FFF777FBFFF7AEFFFFF75C
:101330005DFFFFF745FFFFF77FFFFEE701020203B6
:101340000405060708090A0B0C0D0E0F1010010208
:1013500002030405060708090A0B0C0D0E0F1010F6
:101360000000000000000000010203040607080955
:101370000000000001020304981300080000002090
:10138000100000006C010008A813000810000020E5
:10139000E0060000880100080100000010000000C5
:0813A000000000000024F4002D
:0400000508000131BD
:00000001FF
